:100000000C94C7010C94E4010C94E4010C94E401F9
:100010000C94E4010C94E4010C94E4010C94E401CC
:100020000C94E4010C94E4010C94E4010C94E401BC
:100030000C94E4010C94E4010C94E4010C94E401AC
:100040000C94E4010C94E4010C94E4010C94E4019C
:100050000C94E4010C94E4010C94E4010C94E4018C
:100060000C94E4010C94E4010C94E4010C94E4017C
:100070000C94E4010C94E4010C94E4010C94E4016C
:100080000C94E4010C94E4010C94E4010C94E4015C
:100090000C94E4010C94E4010C94E4010C94E4014C
:1000A0000C94E4010C94E4010C94E40100000000C1
:1000B0000000005F00000007000700147F147F1499
:1000C000242A7F2A122313086462364955225000DD
:1000D00005030000001C2241000041221C001408FE
:1000E0003E081408083E08080050300000080808C0
:1000F0000808006060000020100804023E514945D5
:100100003E00427F400042615149462141454B310A
:100110001814127F1027454545393C4A494930019A
:10012000710905033649494936064949291E0036F1
:100130003600000056360000081422410014141442
:100140001414004122140802015109063249794170
:100150003E7E1111117E7F494949363E414141227F
:100160007F4141221C7F494949417F090909013EDC
:100170004149497A7F0808087F00417F41002040BB
:10018000413F017F081422417F404040407F020CE4
:10019000027F7F0408107F3E4141413E7F090909EB
:1001A000063E4151215E7F09192946464949493198
:1001B00001017F01013F4040403F1F2040201F3F81
:1001C0004038403F63140814630708700807615102
:1001D000494543007F41410002040810200041418D
:1001E0007F0004020102044040404040000102043C
:1001F0000020545454787F484444383844444420C0
:10020000384444487F3854545418087E0901020C7D
:100210005252523E7F0804047800447D4000204042
:10022000443D007F1028440000417F40007C0418BA
:1002300004787C0804047838444444387C1414144A
:1002400008081414187C7C080404084854545420EA
:10025000043F4440203C4040207C1C2040201C3C6B
:100260004030403C44281028440C5050503C4464DA
:10027000544C44000836410000007F000000413625
:100280000800100808100878464146786E616E0034
:10029000696E660000407A10F35A00A0724E180989
:1002A0000010A5D4E80000E87648170000E40B54DD
:1002B000020000CA9A3B000000E1F50500008096AC
:1002C0009800000040420F000000A08601000000DE
:1002D000102700000000E803000000006400000098
:1002E00000000A00000000000100000000002C7661
:1002F000D888DC674F0823DFC1DFAE59E1B1B7967C
:10030000E5E3E453C63AE651997696E8E6C28426D8
:10031000EB898C9B62ED407C6FFCEFBC9C9F40F2B4
:10032000BAA56FA5F490055A2AF75C936B6CF96730
:100330006DC11BFCE0E40D47FEF520E6B500D0EDF5
:10034000902E0300943577050080841E080000205D
:100350004E0A000000C80C333333330F986E1283FB
:100360001141EF8D2114893BE65516CFFEE6DB18CF
:10037000D1844B381BF77C1D901DA4BBE424203294
:1003800084725E228100C9F124ECA1E53D2711248D
:100390001FBECFEFDAE0DEBFCDBF11E0A0E0B1E0DD
:1003A000E2E7F3E102C005900D92AA31B107D9F757
:1003B00021E0AAE1B1E001C01D92A432B207E1F749
:1003C0000E9428030C94B7090C940000CF93C82F07
:1003D000579A249A259A269A879A2C985F9A2C9A4B
:1003E00061E280E00E9436036C2F606880E00E942A
:1003F000360364E080E00E94360363E180E00E94FF
:10040000360360E280E00E9436036CE080E00E94E8
:10041000360360E880E00E94360360E480E0CF911C
:100420000C9436031F93CF93DF93EBE1F1E027E0C9
:1004300030E0C1E0D0E01081A0E0B1E080E090E0E9
:100440006D9170E0022E02C0759567950A94E2F7EF
:10045000462F4170082E01C0440F0A94EAF7BE01EE
:10046000082E01C0660F0A94EAF760956123642B99
:1004700001968830910511F0162FE2CF619321503B
:100480003109C8F60E94C6076CE470E00E941907A3
:1004900080931A010E94C60768E270E00E94190763
:1004A00080932301DF91CF911F910895CF93DF9324
:1004B00060E280E00E94360360911A01606880E08B
:1004C0000E94360360912301669566956695606487
:1004D00080E00E943603CBE1D1E0699181E00E9487
:1004E000360381E0C332D807C1F7DF91CF91089579
:1004F000DF92EF92FF920F931F93CF93DF93EC0164
:100500007B01042FD22E8035910560F5693271058B
:1005100048F560E280E00E9436036C2F606880E05E
:100520000E943603B70183E0759567958A95E1F7D8
:10053000606480E00E94360385E0089F80011124FA
:10054000C0E0D0E0045F1F4FF801EC0FFD1F649185
:10055000D11001C0609581E00E9436032196C5301C
:10056000D10591F7DF91CF911F910F91FF90EF90FF
:10057000DF900895DF92EF92FF920F931F93CF9336
:10058000DF938C017B01D22EEA014991442341F093
:100590002D2DB701C8010E9478020B5F1F4FF5CFC8
:1005A000DF91CF911F910F91FF90EF90DF90089511
:1005B000CF93DF9360E280E00E94360360911A01DE
:1005C000606880E00E94360360912301669566951D
:1005D0006695606480E00E943603C8E0D0E060E089
:1005E00081E00E94360321972097C9F7DF91CF91D0
:1005F0000895E1E6F0E080E8808381E080838FE386
:100600000E94E6010E94840321E04CE051E060E298
:1006100070E08BE190E00E94BA0221E043E151E0FA
:1006200068E270E08BE190E00E94BA020E94120240
:100630000C9456020E94D80280911A0190E0019613
:100640006CE470E00E94190780931A010C94560222
:100650000E94F9020E941A032FEF80E792E02150D6
:1006600080409040E1F700C00000F4CF25B130E2B7
:10067000839FC00111242F7D282B25B95F9887E027
:1006800090E070E08F989B01082E02C03595279569
:100690000A94E2F720FF02C02E9A01C02E988F9A8A
:1006A000019780F75F9A0895CF93C82F579A249A9D
:1006B000259A269A879A2C985F9A2C9A61E280E074
:1006C0000E9436036C2F606880E00E94360364E06D
:1006D00080E00E94360363E180E00E9436036CE014
:1006E00080E00E94360360E280E00E9436036CE006
:1006F00080E00E94360360E480E00E94360360E8F8
:1007000080E0CF910C943603CF93DF93C8EFD1E014
:1007100060E081E00E94360321972097C9F7DF91BE
:10072000CF910895CF93C82F606480E00E94360374
:100730006C2F606880E0CF910C943603A3E1B0E0A9
:10074000E4EAF3E00C942D077C011B016A01FC0133
:1007500017821682838181FF66C3BE016F5F7F4F60
:100760004B01F7019381F10193FD859193FF8191F5
:100770001F01882309F453C3853239F493FD859111
:1007800093FF81911F01853239F4B70190E00E94F7
:10079000C40856016501E5CF10E0512C20E020325D
:1007A000A0F48B3269F030F4803259F0833269F46E
:1007B00020612CC08D3239F0803339F4216026C09D
:1007C0002260246023C0286021C027FD27C030EDAF
:1007D000380F3A3078F426FF06C0FAE01F9F300D3C
:1007E0001124132F13C06AE0569E300D1124532E8E
:1007F00020620CC08E3221F426FD11C3206406C095
:100800008C3611F4206802C0883641F4F10193FD62
:10081000859193FF81911F018111C1CF9BEB980FAF
:10082000933018F42061805E06C09BE9980F9330E6
:1008300008F0AAC12F7E26FF16E02F73722E853690
:1008400021F4F22FF0647F2E08C0863621F4622F47
:100850006068762E02C01111115077FE07C01C335C
:1008600048F444244394410E27E00BC0183030F480
:10087000212F06C027E04CE3442E03C027E017E0F9
:10088000412C560174E0A70EB11CF6016081718104
:1008900082819381042DA4010E94D6076C010981F5
:1008A00000FF02C003FF06C071FC07C072FC08C055
:1008B000612C08C03DE2632E05C02BE2622E02C00F
:1008C00090E2692E802F8C7099F1662011F084E0FF
:1008D00001C083E0851510F0512C0BC0581A73FC31
:1008E00008C0B70180E290E00E94C4085A94C9F79A
:1008F000F3CF662029F0B701862D90E00E94C4084E
:1009000003FD03C000E912E002C00CE812E0F72D7D
:10091000F0717F2EF8018491882309F476C271105A
:100920008052B70190E00E94C4080F5F1F4FF2CFC2
:1009300077FE0FC04C0C04FF04C08A81813309F498
:100940004A94141474F5F8E0F41578F588E0482E0C
:100950002CC076FC2AC0812F90E08C159D059CF060
:100960006CEFC6166FEFD60674F0772D7068772E91
:100970000AC0E2E0F0E0EC0FFD1FE10FF11D808105
:10098000803319F411501111F4CF77FE0EC04424B6
:100990004394410E812F90E0C816D9062CF41C19FF
:1009A00004C04424439401C010E077FE07C01C1427
:1009B0001D043CF496012F5F3F4F05C025E030E059
:1009C00002C021E030E0662011F02F5F3F4F11237D
:1009D00031F0412F50E04F5F5F4F240F351F452D01
:1009E00050E02417350714F4521A01C0512C872DFA
:1009F000897049F4552039F0B70180E290E00E94F7
:100A0000C4085A94F7CF662029F0B701862D90E0EC
:100A10000E94C40873FC09C0552039F0B70180E377
:100A200090E00E94C4085A94F7CF77FE5FC09C2DD7
:100A30008D2DD7FE02C090E080E0692E782E40E038
:100A400050E0C601841991099D878C87960126196B
:100A50003709280D391D812F90E0EE27FF27E81B6D
:100A6000F90BFF87EE87FFEF6F167F0669F4B7017A
:100A70008EE290E02B8B3A8B488B598B0E94C408F6
:100A8000598948893A892B89C614D70454F06C8552
:100A90007D85661577052CF4F901E40FF51F81813A
:100AA00001C080E371E0671A71084F5F5F4FEE8508
:100AB000FF856E167F066CF0B70190E02B8B3A8BAA
:100AC000488B598B0E94C4082B893A8948895989D7
:100AD000CACF6C147D0439F49A81963318F4953397
:100AE00011F404FF81E3B70190E04BC08A818133A8
:100AF00009F00F7EB70190E00E94C408111105C0F3
:100B000074FE18C085E490E017C0B7018EE290E053
:100B10000E94C40882E066246394680EF401E80F22
:100B2000F11D8081B70190E00E94C408115041F38B
:100B3000862DF1CF85E690E0B7010E94C408D7FC6E
:100B400005C0C114D10439F404FF05C0D194C19487
:100B5000D1088DE201C08BE2B70190E00E94C40889
:100B600080E36AE0C616D1042CF08F5FFAE0CF1A5A
:100B7000D108F7CFB70190E00E94C408B701C601C1
:100B8000C0960E94C40841C1833631F0833779F0A2
:100B9000833509F058C021C0560172E0A70EB11C80
:100BA000F6018081898301E010E0640114C05601E0
:100BB000F2E0AF0EB11CF601C080D18026FF03C069
:100BC000612F70E002C06FEF7FEFC6012B8B0E9498
:100BD000B9088C012B892F7715C05601F2E0AF0EB2
:100BE000B11CF601C080D18026FF03C0612F70E0E8
:100BF00002C06FEF7FEFC6012B8B0E94AE088C0105
:100C00002B892068722E23FD1AC0852D90E00817CD
:100C10001907A8F4B70180E290E00E94C4085A9432
:100C2000F4CFF60177FC859177FE81916F01B701D2
:100C300090E00E94C40851105A9401501109011506
:100C4000110579F7E2C0843611F0893651F5560165
:100C500027FF09C0F4E0AF0EB11CF601608171817D
:100C6000828193810AC0F2E0AF0EB11CF60160816F
:100C70007181882777FD8095982F022F0F7697FF37
:100C800008C090958095709561957F4F8F4F9F4FCD
:100C900000682AE030E0A4010E94F608C82EC818B7
:100CA0003EC0022F853721F40F7E2AE030E01DC0C0
:100CB000097F8F3691F018F4883559F0B0C080372D
:100CC00019F0883711F0ABC0006104FF09C004605F
:100CD00007C024FF08C0066006C028E030E005C059
:100CE00020E130E002C020E132E0560107FF09C0F8
:100CF000F4E0AF0EB11CF6016081718182819381B5
:100D000008C0F2E0AF0EB11CF6016081718180E095
:100D100090E0A4010E94F608C82EC8180F7706FFBD
:100D20000BC0202F2E7FC11650F404FF0AC002FD15
:100D300008C0202F2E7E05C0DC2C202F03C0DC2C09
:100D400001C0D12E24FF0DC0FE01EC0DF11D8081EC
:100D5000803311F4297E09C022FF06C0D394D394B6
:100D600004C0822F867809F0D39423FD13C020FF9E
:100D700006C01C2DD51418F4150D1D19D52CD5142D
:100D800068F4B70180E290E02B8B0E94C408D394F2
:100D90002B89F5CFD51410F45D1801C0512C24FF18
:100DA00012C0B70180E390E02B8B0E94C4082B890E
:100DB00022FF17C021FF03C088E590E002C088E74A
:100DC00090E0B7010CC0822F867859F021FD02C057
:100DD00080E201C08BE227FD8DE2B70190E00E9426
:100DE000C408C11638F4B70180E390E00E94C4083B
:100DF0001150F7CFCA94F401EC0DF11D8081B701B9
:100E000090E00E94C408C110F5CF552009F4C2CC6F
:100E1000B70180E290E00E94C4085A94F6CFF7012F
:100E20008681978102C08FEF9FEF6396E2E10C9479
:100E3000490797FB072E16F4009407D077FD09D0D9
:100E40000E94640707FC05D03EF4909581959F4F62
:100E50000895709561957F4F08952F923F924F921C
:100E60005F926F927F928F929F92AF92BF92CF923A
:100E7000DF92EF92FF920F931F93CF93DF93CDB743
:100E8000DEB7CA1BDB0B0FB6F894DEBF0FBECDBFBB
:100E900009942A88398848885F846E847D848C848C
:100EA0009B84AA84B984C884DF80EE80FD800C8195
:100EB0001B81AA81B981CE0FD11D0FB6F894DEBF78
:100EC0000FBECDBFED010895AA1BBB1B51E107C0AA
:100ED000AA1FBB1FA617B70710F0A61BB70B881FCA
:100EE000991F5A95A9F780959095BC01CD01089559
:100EF0008F929F92AF92BF92CF92DF92EF92FF922A
:100F0000CF93DF93EC01688179818A819B816115A0
:100F100071058105910521F464E279ED8BE597E097
:100F20002DE133EF41E050E00E94540949015A019C
:100F30009B01AC01A7EAB1E40E9473096B017C013B
:100F4000ACEEB4EFA50194010E948109C60ED71E34
:100F5000E81EF91EF7FE06C081E0C81AD108E108B4
:100F600080E8F80AC882D982EA82FB82C6019F77AC
:100F7000DF91CF91FF90EF90DF90CF90BF90AF9037
:100F80009F908F9008950E947807089588E091E0DF
:100F90000E9478070895A0E0B0E080930801909344
:100FA0000901A0930A01B0930B010895283008F0BD
:100FB00027E03327DA01990F311D87FD91600096F4
:100FC0006105710539F432602E5F3D9330E32A9557
:100FD000E1F708959F3F30F080387105610509F011
:100FE0003C5F3C5F3D93913008F08068911DDF933A
:100FF000CF931F930F93FF92EF92192F987F96959F
:10100000E92F96959695E90FFF27E251FD4F992715
:101010003327EE24FF24A701E701059008940794E5
:1010200028F4360FE71EF81E491F511D660F771F63
:10103000881F991F0694A1F70590079428F4E70EDE
:10104000F81E491F561FC11D770F881F991F661F65
:101050000694A1F70590079428F4F80E491F561F2F
:10106000C71FD11D880F991F661F771F0694A1F710
:101070000590079420F4490F561FC71FD81F990FDA
:10108000661F771F881F0694A9F784911095177023
:1010900041F0D695C79557954795F794E7941A95DB
:1010A000C1F7E4E9F2E068941590159135916591E6
:1010B000959105907FE27395E118F10A430B560B69
:1010C000C90BD009C0F7E10CF11E431F561FC91F01
:1010D000D01D7EF4703311F48A95E6CFE894015068
:1010E00030F0080F0AF40027021708F4202F239588
:1010F000022F7A3328F079E37D932A95E9F710C01F
:101100007D932A9589F60694979567953795179557
:101110001794E118F10A430B560BC90BD00998F04C
:1011200023957E9173957A3308F070E37C932013B6
:10113000B8F77E9170617D9330F0839571E37D9374
:1011400070E32A95E1F71124EF90FF900F911F9122
:10115000CF91DF91992787FD90950895FC01059027
:10116000615070400110D8F7809590958E0F9F1FA9
:101170000895FC016150704001900110D8F78095EE
:1011800090958E0F9F1F08950F931F93CF93DF931A
:10119000182F092FEB018B8181FD03C08FEF9FEF8B
:1011A00020C082FF10C04E815F812C813D8142179B
:1011B00053077CF4E881F9819F012F5F3F4F39830A
:1011C0002883108306C0E885F985812F0995892B2E
:1011D00029F72E813F812F5F3F4F3F832E83812F41
:1011E000902FDF91CF911F910F910895FA01AA27B7
:1011F000283051F1203181F1E8946F936E7F6E5F5A
:101200007F4F8F4F9F4FAF4FB1E03ED0B4E03CD007
:10121000670F781F891F9A1FA11D680F791F8A1FEA
:10122000911DA11D6A0F711D811D911DA11D20D051
:1012300009F468943F912AE0269F11243019305D0B
:101240003193DEF6CF010895462F4770405D4193FC
:10125000B3E00FD0C9F7F6CF462F4F70405D4A3349
:1012600018F0495D31FD4052419302D0A9F7EACF11
:10127000B4E0A6959795879577956795BA95C9F740
:1012800000976105710508959B01AC010A2E069433
:101290005795479537952795BA95C9F7620F731FEC
:1012A000841F951FA01D0895052E97FB1EF4009422
:1012B0000E946B0957FD07D00E94860907FC03D0E6
:1012C0004EF40C946B0950954095309521953F4F05
:1012D0004F4F5F4F089590958095709561957F4F22
:1012E0008F4F9F4F08950E94A809A59F900DB49F0E
:1012F000900DA49F800D911D11240895B7FF0C94AB
:1013000073090E947309821B930B0895A1E21A2EA0
:10131000AA1BBB1BFD010DC0AA1FBB1FEE1FFF1F99
:10132000A217B307E407F50720F0A21BB30BE40BE9
:10133000F50B661F771F881F991F1A9469F7609530
:101340007095809590959B01AC01BD01CF010895EA
:10135000A29FB001B39FC001A39F700D811D1124F6
:10136000911DB29F700D811D1124911D0895F89457
:02137000FFCFAD
:101372003C42A581A599423C010000004469726586
:0A138200637400577269746572000D
:00000001FF
