:100000000C9489020C94A6020C94A6020C94A602ED
:100010000C94A6020C94A6020C94A6020C94A602C0
:100020000C94A6020C94A6020C94B2210C94EC2120
:100030000C94A6020C94A6020C94A6020C94A602A0
:100040000C94A6020C94A6020C94A6020C94A60290
:100050000C94B90F0C94A6020C94A6020C948F1069
:100060000C94A6020C94A6020C94A6020C94A60270
:100070000C94A6020C94A6020C94A6020C94A60260
:100080000C94A6020C94A6020C94A6020C94A60250
:100090000C94A6020C94A6020C94A6020C94A60240
:1000A0000C94A6020C94A6020C94A6027310751070
:1000B0007A107E1080108310881053214F214B211D
:1000C000472143213F213B21372133212F212B2160
:1000D000272123211F211B21172113210F210B2150
:1000E00007210321FF20FB20F720F320EF20EB2046
:1000F000E720E320DF20DB20D720D320CF20CB2038
:10010000C720C320BF20BB20B720B320AF20AB2027
:10011000A720A3209F209B20972093208F208B2017
:10012000872083207F207B20772073206F206B2007
:10013000672063205F205B205720532005A84CCD0B
:10014000B2D44EB93836A9020C50B9918688083C11
:10015000A6AAAA2ABE000000803F6E616E00696EEA
:10016000660000407A10F35A00A0724E1809001081
:10017000A5D4E80000E87648170000E40B5402001C
:1001800000CA9A3B000000E1F50500008096980047
:10019000000040420F000000A08601000000102770
:1001A00000000000E8030000000064000000000000
:1001B0000A00000000000100000000002C76D88832
:1001C000DC674F0823DFC1DFAE59E1B1B796E5E345
:1001D000E453C63AE651997696E8E6C28426EB895E
:1001E0008C9B62ED407C6FFCEFBC9C9F40F2BAA5FB
:1001F0006FA5F490055A2AF75C936B6CF9676DC193
:100200001BFCE0E40D47FEF520E6B500D0ED902E96
:100210000300943577050080841E080000204E0AF4
:10022000000000C80C333333330F986E1283114132
:10023000EF8D2114893BE65516CFFEE6DB18D184FD
:100240004B381BF77C1D901DA4BBE4242032847224
:100250005E228100C9F124ECA1E53D276364696E4B
:100260006F70737578585B00000100001503120071
:10027000020000D2024300030000CE020401030981
:1002800004B8021402030904A0021603030904922D
:10029000020C0C0331003200330034003500000042
:1002A0001603550053004200200053006500720001
:1002B000690061006C000000140359006F007500B4
:1002C000720020004E0061006D0065000000040314
:1002D000090409024300020100C0320904000001C0
:1002E000020201000524001001052401010104247B
:1002F00002060524060001070582031000400904D8
:100300000100020A00000007050302400000070583
:1003100084024000001201000202000010C0167AA0
:10032000040001010203010001C1120180360181B4
:1003300036000000000000005F000000070007001A
:10034000147F147F14242A7F2A1223130864623630
:10035000495522500005030000001C2241000041C5
:10036000221C0014083E081408083E0808005030FB
:100370000000080808080800606000002010080459
:10038000023E5149453E00427F400042615149468C
:100390002141454B311814127F1027454545393C02
:1003A0004A49493001710905033649494936064928
:1003B00049291E0036360000005636000008142277
:1003C00041001414141414004122140802015109AC
:1003D00006324979413E7E1111117E7F49494936E5
:1003E0003E414141227F4141221C7F494949417F91
:1003F000090909013E4149497A7F0808087F0041FF
:100400007F41002040413F017F081422417F40404E
:1004100040407F020C027F7F0408107F3E41414133
:100420003E7F090909063E4151215E7F091929468F
:10043000464949493101017F01013F4040403F1F8A
:100440002040201F3F4038403F63140814630708D2
:100450007008076151494543007F4141000204088B
:1004600010200041417F000402010204404040404E
:1004700040000102040020545454787F484444381A
:100480003844444420384444487F3854545418086D
:100490007E0901020C5252523E7F08040478004447
:1004A0007D40002040443D007F1028440000417FF3
:1004B00040007C041804787C0804047838444444E0
:1004C000387C14141408081414187C7C08040408DC
:1004D0004854545420043F4440203C4040207C1C5D
:1004E0002040201C3C4030403C44281028440C5004
:1004F00050503C4464544C44000836410000007F96
:1005000000000041360800100808100878464146EF
:10051000780011241FBECFEFDAE0DEBFCDBF12E0BE
:10052000A0E0B1E0E0EDF5E602C005900D92AC363A
:10053000B107D9F725E0ACE6B2E001C01D92A93CB5
:10054000B207E1F70E94721E0C94E6320C94000090
:100550000E94872D62E270E00E94D62C08960895D2
:100560001F93CF93DF93D82FC62F122F5F934F93F4
:1005700086EF91E09F938F931F9284E18F9385EA9A
:1005800093E09F938F930E94C12E8DB79EB70896DC
:100590000FB6F8949EBF0FBE8DBF6C2F70E0212F59
:1005A00045EA53E08D2F90E0DF91CF911F910C949D
:1005B0006E250F93CF93DF93D82FC62F5F934F9362
:1005C0003F932F9383EC91E09F938F931F9284E14D
:1005D0008F9385EA93E09F938F930E94C12E8DB7EE
:1005E0009EB70A960FB6F8949EBF0FBE8DBF6C2FB4
:1005F00070E0202F45EA53E08D2F90E0DF91CF91FE
:100600000F910C946E254F925F926F927F928F9212
:100610009F92AF92BF92CF92DF92EF92FF920F9391
:100620001F93CF93DF9300D000D0CDB7DEB7290161
:100630003A019B01AC01C801B7010E947729698387
:100640007A838B839C83A3019201C601B5010E942A
:1006500077296B017C0129813A814B815C81CA0138
:10066000B9010E948C2B4B015C01A7019601C701C7
:10067000B6010E948C2B9B01AC01C501B4010E9404
:1006800078290F900F900F900F90DF91CF911F91CD
:100690000F91FF90EF90DF90CF90BF90AF909F9021
:1006A0008F907F906F905F904F900C942B2C4F9277
:1006B0005F926F927F928F929F92AF92BF92CF92F2
:1006C000DF92EF92FF920F931F93CF93DF93CDB7FB
:1006D000DEB760970FB6F894DEBF0FBECDBF69835B
:1006E0007A838B839C8329013A01ED82FE820F83FA
:1006F0001887A986BA86CB86DC862BA13CA14DA1A2
:100700005EA10E9477294B015C012FA138A549A564
:100710005AA5C301B2010E9477296B017C01A50192
:100720009401C501B4010E948C2B4B015C01A7010F
:100730009601C701B6010E948C2B9B01AC01C5013B
:10074000B4010E9478290E942B2C6D877E878F87A9
:10075000988B2BA13CA14DA15EA16D817E818F81E3
:1007600098850E9477294B015C012FA138A549A5E6
:100770005AA569857A858B859C850E9477296B01AE
:100780007C01A5019401C501B4010E948C2B4B0191
:100790005C01A7019601C701B6010E948C2B9B0149
:1007A000AC01C501B4010E9478290E942B2C6B0179
:1007B0007C0129813A814B815C816D817E818F81B1
:1007C00098850E9477294B015C01A30192016985FC
:1007D0007A858B859C850E9477292B013C01A50198
:1007E0009401C501B4010E948C2B4B015C01A30153
:1007F0009201C301B2010E948C2B9B01AC01C50187
:10080000B4010E9478290E942B2C4B015C012D859C
:100810003E854F855889C701B6010E9478296B0132
:100820007C012DEC3CEC4CEC5DE3C501B4010E9475
:1008300077299B01AC01C701B6010E94872B87FD78
:1008400011C02DEC3CEC4CEC5DE3C501B4010E9401
:1008500078299B01AC0111E0C701B6010E94E4298F
:1008600018160CF410E0812F60960FB6F894DEBFD6
:100870000FBECDBFDF91CF911F910F91FF90EF90F1
:10088000DF90CF90BF90AF909F908F907F906F90B0
:100890005F904F9008954F925F926F927F92AF92C8
:1008A000BF92CF92DF92EF92FF920F931F93CF935D
:1008B000DF93CDB7DEB728970FB6F894DEBF0FBE33
:1008C000CDBF69837A838B839C8329013A01ED82B2
:1008D000FE820F831887A80197010E94872B87FD4E
:1008E0002BC0298D3A8D4B8D5C8DC801B7010E94BC
:1008F00078299B01AC0169817A818B819C810E945E
:10090000E4291816CCF0A6019501C301B2010E949A
:10091000872B87FD11C02D8D3E8D4F8D58A1C601AF
:10092000B5010E9478299B01AC0111E0C301B2011D
:100930000E94E42918160CF410E0812F28960FB6B7
:10094000F894DEBF0FBECDBFDF91CF911F910F9105
:10095000FF90EF90DF90CF90BF90AF907F906F901F
:100960005F904F9008954F925F926F927F92AF92F7
:10097000BF92CF92DF92EF92FF920F931F93CF938C
:10098000DF93CDB7DEB768970FB6F894DEBF0FBE22
:10099000CDBF69837A838B839C8329013A01ED86DD
:1009A000FE860F87188B29A53AA54BA55CA569A9DA
:1009B0007AA98BA99CA90E947729698B7A8B8B8B4A
:1009C0009C8B2DA53EA54FA558A9C301B2010E943D
:1009D00077296D8B7E8B8F8B988F2DA53EA54FA58C
:1009E00058A96DA97EA98FA998AD0E94772969871A
:1009F0007A878B879C8729A53AA54BA55CA5698139
:100A00007A818B819C810E9477296D837E838F837D
:100A1000988729813A814B815C81C801B7010E9486
:100A2000772969837A838B839C83A3019201C60112
:100A3000B5010E9477296D877E878F87988B2981E2
:100A40003A814B815C8169857A858B859C850E9482
:100A50008C2B2B013C012D853E854F85588969895A
:100A60007A898B899C890E948C2B9B01AC01C301E4
:100A7000B2010E9477292B013C012D893E894F89C3
:100A8000588D69897A898B899C890E948C2B6B018E
:100A90007C012D813E814F81588569857A858B85C2
:100AA0009C850E948C2B9B01AC01C701B6010E9462
:100AB0007729A30192010E94EE296B017C0120E0BD
:100AC00030E0A9010E94872B87FD3EC020E030E086
:100AD00040E85FE3C701B6010E94E4291816A4F1BB
:100AE00029813A814B815C816D897E898F89988DBE
:100AF0000E948C2B6B017C012D853E854F8558898A
:100B00006D817E818F8198850E948C2B9B01AC0129
:100B1000C701B6010E947729A30192010E94EE2924
:100B20006B017C0120E030E0A9010E94872B87FD4A
:100B30000BC011E020E030E040E85FE3C701B60100
:100B40000E94E42918160CF410E0812F68960FB665
:100B5000F894DEBF0FBECDBFDF91CF911F910F91F3
:100B6000FF90EF90DF90CF90BF90AF907F906F900D
:100B70005F904F9008952F923F924F925F926F92A5
:100B80007F928F929F92AF92BF92CF92DF92EF921D
:100B9000FF920F931F93CF93DF93CDB7DEB76C9780
:100BA0000FB6F894DEBF0FBECDBF988F8F8B4B0171
:100BB0002A0139011801DA8EC98EB7016A0D7B1D31
:100BC000072E000C880B990B0E94982A6D877E8750
:100BD0008F87988BB701FF0C880B990B0E94982A7E
:100BE0006B8F7C8F898B9A8BB801110F880B990BB7
:100BF0000E94982A6B8B7C8B8D8B9E8BB301770C1C
:100C0000880B990B0E94982A69837A838B839C8333
:100C1000B201550C880B990B0E94982A6D837E8334
:100C20008F839887B401990C880B990B0E94982A9E
:100C300069877A878B879C872F89388DB901330F15
:100C4000880B990B0E94982A2B013C0138893F930D
:100C50008F858F939E859F932D852F933E893F93FC
:100C60008D898F939C899F932B892F933A893F93EA
:100C700089898F939C8D9F932B8D2F933E893F93D2
:100C80008D898F939C899F932B892F93A980BA80FC
:100C9000CB80DC80ED80FE800F81188529853A8528
:100CA0004B855C85C301B2010E94B3040FB6F89472
:100CB000DEBF0FBECDBF8F8B698D7A8D620D731D28
:100CC000072E000C880B990B0E94982A1B014C01DF
:100CD00038893F938F858F939E859F932D852F9382
:100CE0009F928F923F922F923A893F9389898F9357
:100CF0009C8D9F932B8D2F939F928F923F922F923B
:100D0000A980BA80CB80DC80ED80FE800F811885C1
:100D100029853A854B855C85C301B2010E94B304E5
:100D20000FB6F894DEBF0FBECDBF898F3A893F93CF
:100D300089898F939C8D9F932B8D2F939F928F9258
:100D40003F922F923F938F939F932F933E893F9390
:100D50008D898F939C899F932B892F93A980BA802B
:100D6000CB80DC80ED80FE800F81188529853A8557
:100D70004B855C85C301B2010E94B3040FB6F894A1
:100D8000DEBF0FBECDBF898B38893F938F858F9390
:100D90009E859F932D852F939F928F923F922F92A6
:100DA0003F938F939F932F933E893F938D898F938A
:100DB0009C899F932B892F93A980BA80CB80DC805C
:100DC000ED80FE800F81188529853A854B855C85ED
:100DD000C301B2010E94B3040FB6F894DEBF0FBE88
:100DE000CDBF3F89311105C0998D911102C029896C
:100DF000211181E06C960FB6F894DEBF0FBECDBF17
:100E0000DF91CF911F910F91FF90EF90DF90CF90E6
:100E1000BF90AF909F908F907F906F905F904F901A
:100E20003F902F9008952F923F924F925F926F9232
:100E30007F928F929F92AF92BF92CF92DF92EF926A
:100E4000FF920F931F93CF93DF93CDB7DEB76E97CB
:100E50000FB6F894DEBF0FBECDBF5C834B83190184
:100E600020916001309161013A83298340E051E093
:100E70005E8F4D8F812C912C9B01770F440B550B6E
:100E80002D8B3E8B4F8B588F9C01990F440B550B2C
:100E9000298F3A8F4B8F5C8F49815A818416950632
:100EA0000CF06AC06D897E898F89988D0E94982A7E
:100EB0000E94F92B6B017C01698D7A8D8B8D9C8D45
:100EC0000E94982A0E94F92B2B013C01C701B60110
:100ED0000E94602A6D837E838F839887C301B2014D
:100EE0000E94602A69877A878B879C87ED8DFE8DAB
:100EF00064857585868597850E94602A6D877E87C3
:100F00008F87988BED8DFE8D6085718582859385A9
:100F10000E94602A698B7A8B8B8B9C8BED8DFE8D6A
:100F200064817581868197810E94602A2B013C0132
:100F3000ED8DFE8D60817181828193810E94602A96
:100F4000DC01CB015101CB80DC80ED80FE80098586
:100F50001A852D853E8549895A89B2010E94BB05B3
:100F60002D8D3E8D205F3F4F3E8F2D8F811105C00F
:100F70003FEF831A930A90CF80E06E960FB6F894F5
:100F8000DEBF0FBECDBFDF91CF911F910F91FF90BC
:100F9000EF90DF90CF90BF90AF909F908F907F9019
:100FA0006F905F904F903F902F9008952F923F92B7
:100FB0004F925F926F927F928F929F92AF92BF9269
:100FC000CF92DF92EF92FF920F931F93CF93DF9315
:100FD000CDB7DEB762970FB6F894DEBF0FBECDBFB8
:100FE000209060013090610120E031E03A8B298B44
:100FF000812C912C9B01770F440B550B29873A8745
:101000004B875C879C01990F440B550B2D873E87BE
:101010004F87588B821493040CF051C0A989BA8968
:101020001C96AD90BD90CD90DC901F9718962D9199
:101030003D914D915C911B9729833A834B835C834F
:1010400014962D913D914D915C9117972D833E8380
:101050004F8358874D905D906D907C9069857A851F
:101060008B859C850E94982A9F938F937F936F9383
:101070006D857E858F8598890E94982A9F938F938E
:101080007F936F93E980FA800B811C812D813E81D3
:101090004F815885C301B2010E9457030FB6F894DF
:1010A000DEBF0FBECDBF29893A89205F3F4F3A8B03
:1010B000298B811105C03FEF831A930AABCF80E0E3
:1010C00062960FB6F894DEBF0FBECDBFDF91CF9111
:1010D0001F910F91FF90EF90DF90CF90BF90AF9056
:1010E0009F908F907F906F905F904F903F902F9048
:1010F0000895FC013496E417F50784F04C5F5F4FC8
:10110000481759075CF0CB0104968217930734F017
:101110002C5F3F4F81E0261737070CF480E00895DD
:101120002F923F924F925F926F927F928F929F92F7
:10113000AF92BF92CF92DF92EF92FF920F931F93E5
:10114000CF93DF93CDB7DEB7A0970FB6F894DEBF8D
:101150000FBECDBF1C0178A36F8F8091600190916D
:1011600061019A83898340E0442E41E0542E612C32
:10117000712CCB01092E000CAA0BBB0B8F8B988F07
:10118000A98FBA8FC101032C000CAA0BBB0B8B8F4C
:101190009C8FAD8FBE8FA981BA816A167B060CF039
:1011A0006DC06F89788D898D9A8D0E94982A0E94D2
:1011B000F92B4B015C016B8D7C8D8D8D9E8D0E947A
:1011C000982A0E94F92B6B017C01C501B4010E9491
:1011D000602A6B837C838D839E83C701B6010E9446
:1011E000602A6F83788789879A87D2011C966D91D0
:1011F0007D918D919C911F970E94602A6B877C87BF
:101200008D879E87F20160857185828593850E9416
:10121000602A6F87788B898B9A8BD20114966D9197
:101220007D918D919C9117970E94602A6B8B7C8B8E
:101230008D8B9E8BF20160817181828193810E94EE
:10124000602ADC01CB0124E0A22EB12C34E0C32EB5
:10125000D12CEB80FC800F8118852B853C854F8538
:1012600058896B897C890E94BB05F0E14F0E511CA7
:101270008111BBC08FEF681A780A8DCF00E113E0AF
:1012800088E3682E83E0782EF801C080D180E28068
:10129000F38020E030E0A901C701B6010E94E429F3
:1012A000882321F1D80114968D909D90AD90BC902B
:1012B000179720E030E0A901C501B4010E94E4299C
:1012C0008823A1F0C501B4010E94602A4B015C0192
:1012D000C701B6010E94602ADC01CB012F8D38A125
:1012E000A101B4010E94790881117FC0F301C0807F
:1012F000D180E280F38020E030E0A901C701B6018F
:101300000E94E429882321F1D30114968D909D90A9
:10131000AD90BC90179720E030E0A901C501B40161
:101320000E94E4298823A1F0C501B4010E94602A2B
:101330004B015C01C701B6010E94602ADC01CB01B0
:101340002F8D38A1A101B4010E94790881114DC0EF
:10135000085F1F4FB8E06B0E711CE3E008331E07F7
:1013600009F092CF6091890370918A032F8D38A183
:10137000A10180919103909192030E9479088111BB
:1013800034C06091C3037091C4032F8D38A1A101B3
:1013900080918B0390918C030E947908811125C064
:1013A00060918703709188032F8D38A1A1018091EE
:1013B0007B0390917C03A0960FB6F894DEBF0FBE1E
:1013C000CDBFDF91CF911F910F91FF90EF90DF90F4
:1013D000CF90BF90AF909F908F907F906F905F90D5
:1013E0004F903F902F900C947908A0960FB6F894E8
:1013F000DEBF0FBECDBFDF91CF911F910F91FF9048
:10140000EF90DF90CF90BF90AF909F908F907F90A4
:101410006F905F904F903F902F900895809162035E
:1014200090916303909392038093910380916A015A
:1014300090916B0190938A038093890308958F9212
:101440009F92AF92BF92CF92DF92EF92FF928091E4
:10145000660190916701A0916801B0916901809344
:10146000830390938403A0938503B09386038091B4
:10147000620190916301A0916401B0916501809334
:10148000BB039093BC03A093BD03B093BE030E9423
:10149000872DBC01990F880B990B0E94982A2BED80
:1014A0003FE049E450E40E948C2B9B01AC010E9478
:1014B000782920E03EEF4FEF56E40E94EE294B01E1
:1014C0005C010E94E929C0907001D0907101E09008
:1014D0007201F0907301A70196010E948C2B60931A
:1014E0009B0370939C0380939D0390939E03C5017F
:1014F000B4010E941D2C9B01AC01C701B6010E94E2
:101500008C2B609397037093980380939903909327
:101510009A03FF90EF90DF90CF90BF90AF909F9095
:101520008F9008950F938091910390919203609111
:10153000890370918A03AC014C5F5F4F01E09B010E
:101540000E94A6236091890370918A038091910380
:101550009091920302969B012C5F3F4FAC010E9439
:10156000A6236091890370918A036C5F7F4F8091FD
:101570009103909192039B01AC0102960E94A623D5
:101580008091640390916503892B71F1809191039F
:10159000909192036091890370918A036F5F7F4FEE
:1015A000AC014C5F5F4F9B010E94A62360918903B1
:1015B00070918A03809191039091920303969B010D
:1015C0002C5F3F4FAC010E94A6236091890370916C
:1015D0008A036D5F7F4F80919103909192039B01ED
:1015E000AC0102960E94A6230F9108954F925F923C
:1015F0006F927F928F929F92AF92BF92CF92DF9223
:10160000EF92FF920F931F93CF93DF935C0120E043
:1016100030E040E05FE36091930370919403809128
:101620009503909196030E9478299B01AC010E943A
:101630007829209174013091750140917601509183
:1016400077010E948C2B6B017C0180916A03C09111
:101650008903D0918A030091910310919203811123
:1016600004C087E7A816B10489F5C930D10574F123
:101670002091640330916503BE01DD0F880B990B47
:10168000232BF9F40E94982A2B013C01A701960113
:101690000E9477290E94602A4B015C0124E030E01F
:1016A00044E050E0C8010E941307882329F0A301F9
:1016B0009201C701B60157C090928A0380928903B4
:1016C000D5C00E94982AA701960132C080916C0370
:1016D000811105C0E3E7AE16B10409F04DC0C9326F
:1016E000D1050CF049C02091640330916503BE011F
:1016F000DD0F880B990B232B91F50E94982A4B0143
:101700005C019B01AC01C701B6010E9478290E94CF
:10171000602A2B013C0124E030E044E050E0C801A5
:101720000E941307A7019601882329F0C501B4017F
:101730000E9477291AC0C501B4010E9477290E942E
:10174000602A24E030E044E050E0C8010E94130722
:1017500081118CC050928A034092890387C00E94F5
:10176000982AA70196010E9478290E94602A709306
:101770008A03609389037AC080916E03811104C04B
:10178000F1E6AF16B10469F51016110654F5209173
:10179000640330916503B801110F880B990B232B5B
:1017A000D9F40E94982A2B013C01A70196010E94BE
:1017B00077290E94602A4B015C0124E030E044E07C
:1017C00050E0BE01C4010E9413078823F1F1A30178
:1017D0009201C701B60142C00E94982AA701960152
:1017E00031C080917003811104C084E6A816B10451
:1017F000E9F50F341105D4F52091640330916503A8
:10180000B801110F880B990B232B21F50E94982A00
:101810002B013C019B01AC01C701B6010E94782954
:101820000E94602A4B015C0124E030E044E050E07B
:10183000BE01C4010E941307882339F0A701960155
:10184000C301B2010E9477290BC09092920380924B
:1018500091030CC00E94982AA70196010E94782942
:101860000E94602A7093920360939103C091890350
:10187000D0918A03CE0108970091910310919203B1
:101880008997B0F40535110598F423E030E043E082
:1018900050E0BE016F5F7F4FC80101960E941307A1
:1018A0008823F9F08091640390916503892BC9F432
:1018B00080916203909163030817190791F080915A
:1018C0006A0190916B01C817D90759F00E940E0A5E
:1018D0008091C1039091C20301979093C2038093BA
:1018E000C103E0908903F0908A0300919103109165
:1018F0009203409064035090650328E3C22E23E0D6
:10190000D22E30E1632E33E0732EC0E0D0E0F6013A
:1019100064817581868197810E94602A4B015C01F8
:10192000F60160817181828193810E94602A940115
:10193000AB01B701C8010E947908882399F193E0AF
:10194000CC0FDD1F9A95E1F7C85CDC4F1882198235
:101950001A821B821C821D821E821F828091C503F7
:101960009091C6039093A2038093A10380919F035B
:101970009091A00301969093A00380939F03809180
:10198000CF039091D00301979093D0038093CF031E
:1019900080917D0390917E03019690937E038093C6
:1019A0007D0350C0F30164817581868197810E9417
:1019B000602A4B015C01F301608171818281938116
:1019C0000E94602A9401AB01B701C8010E94790806
:1019D000882369F14114510451F583E0CC0FDD1FD8
:1019E0008A95E1F7C05FDC4F188219821A821B8248
:1019F0001C821D821E821F828091C5039091C603A6
:101A00009093C8038093C7038091C1039091C20350
:101A100001979093C2038093C10380918F039091AB
:101A2000900301979093900380938F030BC02196AE
:101A3000F8E0CF0ED11C88E0680E711CC530D105CE
:101A400009F065CF2091C3033091C40340918B030B
:101A500050918C03B701C8010E947908882359F07E
:101A60001092C4031092C30310928C0310928B0344
:101A700081E0809367032091870330918803409130
:101A80007B0350917C03B701C8010E947908882329
:101A9000B1F08091C5039091C60390938203809327
:101AA0008103109288031092870310927C03109296
:101AB0007B038AE090E090936503809364036091D8
:101AC000BB037091BC038091BD039091BE030E9443
:101AD000602A4B015C0160918303709184038091C3
:101AE0008503909186030E94602A9401AB01B7019F
:101AF000C8010E9479088823E9F0809164039091DD
:101B00006503892B61F40E940E0A8091C1039091B4
:101B1000C20301979093C2038093C1030BC00E943C
:101B20001F0A80919F039091A00301969093A003B8
:101B300080939F03DF91CF911F910F91FF90EF90C2
:101B4000DF90CF90BF90AF909F908F907F906F90DD
:101B50005F904F9008954F925F926F927F928F9215
:101B60009F92AF92BF92CF92DF92EF92FF920F932C
:101B70008090830390908403A0908503B0908603A7
:101B80006091BB037091BC038091BD039091BE0333
:101B90000E94602A6B017C0120E030E040E850E4C4
:101BA000C501B4010E9478290E94602A2B013C01E2
:101BB000C501B4010E94602ADC01CB0101E096015D
:101BC000A201B6010E94A6238090BB039090BC03A3
:101BD000A090BD03B090BE0320E030E040E050E4B0
:101BE00060918303709184038091850390918603B3
:101BF0000E9478290E94602A6B017C0120E030E07D
:101C000040E850E4C501B4010E9478290E94602A8E
:101C10002B013C01C501B4010E94602A9201A6017A
:101C2000C6010E94A6230F91FF90EF90DF90CF9006
:101C3000BF90AF909F908F907F906F905F904F90EC
:101C400008954F925F926F927F928F929F92AF9280
:101C5000BF92CF92DF92EF92FF920F931F93CF9399
:101C6000DF93CDB7DEB72F970FB6F894DEBF0FBE68
:101C7000CDBF4090830350908403609085037090A3
:101C8000860380909B0390909C03A0909D03B0904E
:101C90009E03A5019401C301B2010E9478290E940C
:101CA000F92B0E94602A69837A838B839C838981C4
:101CB0009A819F878E878091BB039091BC03A091EE
:101CC000BD03B091BE0389879A87AB87BC87C0905C
:101CD0009703D0909803E0909903F0909A03A7019E
:101CE0009601BC01CD010E9478290E94F92B0E9427
:101CF000602A6D837E838F8398870D811E81AE85D8
:101D0000BF85109769F0A035B10551F024E030E0AF
:101D100044E050E0B801CD010E941307882371F020
:101D2000D501C401B05880939B0390939C03A0936A
:101D30009D03B0939E03B1E0BD8701C01D860830AE
:101D4000110579F00A32110561F024E030E044E039
:101D500050E06D817E8189819A810E9413078823DA
:101D600069F0F7FAF094F7F8F094C0929703D092E4
:101D70009803E0929903F0929A0341C08D858111F6
:101D80003EC020E030E040E85EE360919303709154
:101D9000940380919503909196030E9478299B016A
:101DA000AC010E9478294B015C0120919B0330918A
:101DB0009C0340919D0350919E030E948C2BA30194
:101DC00092010E9478296093830370938403809327
:101DD000850390938603A5019401C701B6010E9473
:101DE0008C2B29853A854B855C850E9478296093E8
:101DF000BB037093BC038093BD039093BE03C0905C
:101E0000BB03D090BC03E090BD03F090BE0320E084
:101E100030E040E051E4C701B6010E94E42987FDAB
:101E200025C020E030E040E452E4C701B6010E9442
:101E3000872B1816DCF0C0908303D0908403E090C9
:101E40008503F090860320E030E0A901C701B601C8
:101E50000E94E42987FD0AC020E030E048EA52E40D
:101E6000C701B6010E94872B18165CF40E941F0A56
:101E700080919F039091A00301969093A00380937B
:101E80009F03C090BB03D090BC03E090BD03F090D3
:101E9000BE0340908303509084036090850370904C
:101EA000860320E030E040E85FE3C701B6010E940E
:101EB00078290E94602A4B015C0120E030E040E874
:101EC0005FE3C301B2010E9478290E94602ADC010D
:101ED000CB0123E030E043E050E0B4010E9413075F
:101EE000882381F18090660190906701A09068013D
:101EF000B0906901A5019401C301B2010E94E429D7
:101F0000882301F1A5019401C701B6010E94E429CB
:101F10008823C1F02F960FB6F894DEBF0FBECDBF59
:101F2000DF91CF911F910F91FF90EF90DF90CF90B5
:101F3000BF90AF909F908F907F906F905F904F90E9
:101F40000C941F0A2F960FB6F894DEBF0FBECDBFBC
:101F5000DF91CF911F910F91FF90EF90DF90CF9085
:101F6000BF90AF909F908F907F906F905F904F90B9
:101F700008951F920F920FB60F921124CF92DF9205
:101F8000EF92FF922F933F934F935F936F937F93C3
:101F90008F939F93AF93BF93CF93DF93EF93FF9371
:101FA00080916803811180C080916C0290916D02D4
:101FB000A0916E02B0916F02BC01CD016F5F7F4FA7
:101FC0008F4F9F4F60936C0270936D0280936E02EF
:101FD00090936F02C0918400D09185000E94962A50
:101FE00020E030E040E857E40E948C2B6B017C013C
:101FF000BE0180E090E00E94962A9B01AC01C701DF
:10200000B6010E94782920E030E040E852E40E94C6
:102010008C2B20E034E244EF5AE40E94EE2920E0C9
:1020200030E040E85FE30E94872B87FD2AC02091C3
:10203000C5033091C6032F5F3F4F3093C6032093F3
:10204000C5038091BF039091C00301969093C00394
:102050008093BF0310926C0210926D0210926E0278
:1020600010926F028091640390916503009749F08C
:1020700030938203209381030197909365038093AB
:1020800064038091BF039091C003CC976CF0809162
:10209000CD039091CE0301969093CE038093CD0310
:1020A0001092C0031092BF03FF91EF91DF91CF9187
:1020B000BF91AF919F918F917F916F915F914F9160
:1020C0003F912F91FF90EF90DF90CF900F900FBE38
:1020D0000F901F90189587309105F8F4FC01EA5A8B
:1020E000FF4F0C94EA2C89B106C083B1881F882762
:1020F000881F089583B186958170089589B101C0C4
:1021000083B1817008958FB185FB882780F9089588
:102110008FB186FB882780F9089580E008951F928B
:102120000F920FB60F921124FF920F931F932F93CC
:102130003F934F935F936F937F938F939F93AF934F
:10214000BF93CF93DF93EF93FF93C9E6D3E000E013
:1021500010E0FF24F394C8010E946B1005301105B4
:1021600014F020E001C023E09881990F9223892B7D
:102170008883281302C0F98203C0811101C019822B
:102180000F5F1F4F22960730110529F7FF91EF913E
:10219000DF91CF91BF91AF919F918F917F916F917F
:1021A0005F914F913F912F911F910F91FF900F9051
:1021B0000FBE0F901F9018950F938091C0038F93BF
:1021C0008091BF038F938091CE038F938091CD0335
:1021D0008F938091A0038F9380919F038F93809121
:1021E000C2038F938091C1038F93809161038F937A
:1021F000809160038F9386EC91E09F938F931F9261
:1022000084E18F9385EA93E09F938F930E94C12E80
:1022100021E045EA53E060E070E080E090E00E9459
:102220006E2501E027E030E044E550E067E070E033
:1022300080E090E00E94A6238DB79EB740960FB62F
:10224000F8949EBF0FBE8DBF0F910895893711F48A
:102250000C94A802883739F40E94872D60E570E05D
:102260000E94D62C08958FEF9FEF08952F923F92F2
:102270004F925F926F927F928F929F92AF92BF9296
:10228000CF92DF92EF92FF920F93CF93DF93C0E054
:10229000D1E0212C312C80916001909161012816B0
:1022A00039065CF56C857D858E859F850E94602A48
:1022B0002B013C01688579858A859B850E94602A6F
:1022C0004B015C016C817D818E819F810E94602A1F
:1022D0006B017C01688179818A819B810E94602ADF
:1022E000DC01CB0101E09201A401B6010E94A6230A
:1022F0008FEF281A380A6096CECFDF91CF910F91D9
:10230000FF90EF90DF90CF90BF90AF909F908F9015
:102310007F906F905F904F903F902F9008952F92F5
:102320003F924F925F926F927F928F929F92AF9265
:10233000BF92CF92DF92EF92FF920F931F93CF93B2
:10234000DF93CDB7DEB7A2970FB6F894DEBF0FBE0E
:10235000CDBF20906001309061018091C9039091C0
:10236000CA03A091CB03B091CC03898F9A8FAB8F16
:10237000BC8F80916C0190916D01A0916E01B09124
:102380006F018D8F9E8FAF8FB8A3A0E0B1E0BAA38D
:10239000A9A300E010E0021513050CF063C2A9A187
:1023A000BAA118968D919D910D90BC91A02D8D870D
:1023B0009E87AF87B88BE9A1FAA180809180A28027
:1023C000B380A5019401BC01CD010E9477296D83E2
:1023D0007E838F839887A9A1BAA11C968D919D9128
:1023E0000D90BC91A02D898B9A8BAB8BBC8BA9A136
:1023F000BAA114968D919D910D90BC91A02D8D8BBD
:102400009E8BAF8BB88F9C01AD0169897A898B89CE
:102410009C890E94772969877A878B879C8720E02F
:1024200030E0A9016D817E818F8198850E94E42929
:1024300087FF09C08D819E81AF81B885B0588D839B
:102440009E83AF83B88720E030E0A90169857A8553
:102450008B859C850E94E42987FF09C089859A8520
:10246000AB85BC85B05889879A87AB87BC872D8D93
:102470003E8D4F8D58A1698D7A8D8B8D9C8D0E94DC
:102480008C2B6B017C0169857A858B859C850E94EC
:102490001D2C9B01AC01C701B6010E948C2B2B01A6
:1024A0003C019B01AC01C501B4010E9478296983FC
:1024B0007A838B839C83A9A1BAA16D937D938D931D
:1024C0009C9313976D817E818F8198850E941D2C2E
:1024D0009B01AC01C701B6010E948C2B6B017C01F2
:1024E0009B01AC016D897E898F89988D0E94782926
:1024F0004B015C01E9A1FAA164837583868397830C
:10250000A30192016D857E858F8598890E94782927
:102510002B013C01A9A1BAA118966D937D938D93CF
:102520009C931B97A701960169897A898B899C895D
:102530000E9478296B017C01E9A1FAA16487758763
:102540008687978720E030E0A9016D817E818F81A9
:1025500098850E94E42920E030E0A901811151C052
:1025600069817A818B819C810E94E42987FF0AC05E
:1025700080E090E0A8EAB2E4E9A1FAA18083918327
:10258000A283B38320E030E0A901C301B2010E941D
:10259000E42987FF0AC080E090E0A8EAB2E4E9A15C
:1025A000FAA180879187A287B38720E030E048EACC
:1025B00052E4A9A1BAA16D917D918D919C910E9447
:1025C000872B181634F4E9A1FAA110821182128225
:1025D000138220E030E048EA52E4A9A1BAA118969B
:1025E0006D917D918D919C911B970E94872B181660
:1025F0000CF030C1E9A1FAA110861186128613866B
:1026000029C169857A858B859C850E94E429811181
:102610005EC020E030E040E051E4C501B4010E941A
:10262000E42987FF0AC080E090E0A0E4B2E4E9A1D9
:10263000FAA184839583A683B78320E030E040E04D
:1026400051E4C701B6010E94E42987FF0AC080E077
:1026500090E0A0E4B2E4E9A1FAA184879587A68777
:10266000B78720E030E040E452E4A9A1BAA1149673
:102670006D917D918D919C9117970E94872B1816D3
:1026800054F480E090E0A0E0B1E4E9A1FAA18483F1
:102690009583A683B78320E030E040E452E4A9A10B
:1026A000BAA11C966D917D918D919C911F970E946E
:1026B000872B18160CF0CEC080E090E0A0E0B1E4CB
:1026C000E9A1FAA184879587A687B787C3C020E0D0
:1026D00030E040E251EC69817A818B819C810E94DB
:1026E000E42987FD0AC020E030E040E251ECC3015C
:1026F000B2010E94E42987FF1AC020E030E048EAD6
:1027000052E469817A818B819C810E947829A9A1F8
:10271000BAA16D937D938D939C93139720E030E045
:1027200048EA52E4C301B2010E9478292FC020E098
:1027300030E04CEB52E469817A818B819C810E946C
:10274000872B181654F020E030E04CEB52E4C30124
:10275000B2010E94872B181604F520E030E048EA09
:1027600052E469817A818B819C810E947729A9A199
:10277000BAA16D937D938D939C93139720E030E0E5
:1027800048EA52E4C301B2010E947729E9A1FAA103
:1027900060877187828793875DC020E030E0A90160
:1027A000C501B4010E94E42987FD09C020E030E0A2
:1027B000A901C701B6010E94E42987FF19C020E0E2
:1027C00030E040E452E4C501B4010E947829A9A197
:1027D000BAA114966D937D938D939C93179720E0E7
:1027E00030E040E452E4C701B6010E9478292CC0D1
:1027F00020E030E048E652E4C501B4010E94872B96
:10280000181654F020E030E048E652E4C701B60163
:102810000E94872B1816F4F420E030E040E452E4E4
:10282000C501B4010E947729A9A1BAA114966D939C
:102830007D938D939C93179720E030E040E452E421
:10284000C701B6010E947729E9A1FAA164877587BB
:10285000868797870F5F1F4F89A19AA140969AA3F9
:1028600089A399CDA2960FB6F894DEBF0FBECDBF57
:10287000DF91CF911F910F91FF90EF90DF90CF905C
:10288000BF90AF909F908F907F906F905F904F9090
:102890003F902F9008958F929F92AF92BF92CF92C8
:1028A000DF92EF92FF92CF93DF93C0E7D2E0C88030
:1028B000D980EA80FB8020E030E0A901C701B601A1
:1028C0000E94E4298823E9F08C809D80AE80BF803F
:1028D00020E030E0A901C501B4010E94E429882369
:1028E00081F0C501B4010E94602A4B015C01C7015F
:1028F000B6010E94602ADC01CB0141E0B4010E94D4
:102900006D23289683E0C031D80789F6DF91CF91F7
:10291000FF90EF90DF90CF90BF90AF909F908F90FF
:1029200008952F923F924F925F926F927F928F9273
:102930009F92AF92BF92CF92DF92EF92FF920F934E
:102940001F93CF93DF93CDB7DEB72C970FB6F894D4
:10295000DEBF0FBECDBF8091830390918403A09111
:102960008503B091860389839A83AB83BC8380916E
:10297000BB039091BC03A091BD03B091BE038D83B6
:102980009E83AF83B887A0E7B2E0BC87AB8700E047
:1029900010E0EB85FC8580809180A280B38020E0F0
:1029A00030E0A901C501B4010E94E429882309F49B
:1029B000E1C0AB85BC851496CD90DD90ED90FC9088
:1029C000179720E030E0A901C701B6010E94E42971
:1029D000882309F4CFC029813A814B815C81C501EC
:1029E000B4010E9477290E94602A1B012D813E813B
:1029F0004F815885C701B6010E9477290E94602A3D
:102A00007A87698720E030E040E85FE369817A8176
:102A10008B819C810E9477292B013C019B01AC0199
:102A2000C501B4010E94872B87FD5AC020E030E029
:102A300040EA50E4C301B2010E9478299B01AC0135
:102A4000C501B4010E94E42918160CF449C020E025
:102A500030E040E85FE36D817E818F8198850E9440
:102A600077292B013C019B01AC01C701B6010E94F3
:102A7000872B87FD35C020E030E040EA50E4C301F9
:102A8000B2010E9478299B01AC01C701B6010E94E6
:102A9000E42918162CF183E0000F111F8A95E1F745
:102AA000F801E059FD4F14821582168217821082B8
:102AB0001182128213828091B9039091BA03019717
:102AC0009093BA038093B9030E941F0A80919F03D9
:102AD0009091A00301969093A00380939F03A1C0BF
:102AE00037FE54C020E030E040E05FE3C501B401B0
:102AF0000E9478294B015C01C701B6010E94602A3F
:102B00002B013C01C501B4010E94602ADC01CB010C
:102B1000B2010E94D60781116BC0EB85FC858082D3
:102B20009182A282B382E985FA85F7FF54C020E042
:102B300030E040E05FE3C701B6010E9478296B01F5
:102B40007C010E94602A4B015C01AB85BC856D91C4
:102B50007D918D919C910E94602ADC01CB01B40192
:102B60000E94D607811144C0EB85FC85C482D582C2
:102B7000E682F7820F5F1F4F8B859C8508969C87A6
:102B80008B870431110509F004CF4BC0232859F27B
:102B900020E030E040E05FE3C501B4010E94772906
:102BA0004B015C01C701B6010E94602A2B013C0168
:102BB000C501B4010E94602ADC01CB01B2010E9470
:102BC000D607811115C0AB85BC858D929D92AD92C3
:102BD000BC921397A8CF89859A85892B59F220E05A
:102BE00030E040E05FE3C701B6010E947729A7CF3C
:102BF00093E0000F111F9A95E1F7F801E059FD4F9E
:102C00001482158216821782108211821282138218
:102C10008091B9039091BA0301979093BA0380937E
:102C2000B9032C960FB6F894DEBF0FBECDBFDF916F
:102C3000CF911F910F91FF90EF90DF90CF90BF90B9
:102C4000AF909F908F907F906F905F904F903F904C
:102C50002F9008954F925F926F927F928F929F92E2
:102C6000AF92BF92CF92DF92EF92FF920F93CF93EA
:102C7000DF9300D000D000D0CDB7DEB788E393E07B
:102C80009E838D83ED81FE81C080D180E280F380C0
:102C900020E030E0A901C701B6010E94E4298823A1
:102CA00009F49CC0ED81FE8184809580A680B78068
:102CB00020E030E0A901C501B4010E94E429882385
:102CC00009F48CC020E030E040E050E4C501B401DC
:102CD0000E9478290E94602A2B013C0120E030E00C
:102CE00040E850E4C701B6010E9478290E94602A9A
:102CF00069837A838B839C83C501B4010E94602A17
:102D00004B015C01C701B6010E94602ADC01CB01C6
:102D100001E0920149815A81B4010E94A623ED810C
:102D2000FE8184809580A680B780608171818281D8
:102D300093810E94602A6B017C0120E030E040E832
:102D400050E4C501B4010E9478290E94602A2B0139
:102D50003C01C501B4010E94602A9201A601C6018E
:102D60000E94A623ED81FE8184809580A680B78095
:102D7000C080D180E280F38020E030E040E050E489
:102D8000C501B4010E9478290E94602A2B013C01F0
:102D900020E030E040E850E4C701B6010E94782905
:102DA0000E94602A69837A838B839C8320E030E0D1
:102DB00040E850E4C501B4010E9478290E94602ACD
:102DC0004B015C01C701B6010E94602ADC01CB0106
:102DD000920149815A81B4010E94A6238D819E816E
:102DE00008969E838D838056934009F04BCF26969C
:102DF0000FB6F894DEBF0FBECDBFDF91CF910F911C
:102E0000FF90EF90DF90CF90BF90AF909F908F900A
:102E10007F906F905F904F900895CF92DF92EF92E6
:102E2000FF920F931F93CF93DF938091CF039091E5
:102E3000D003853091050CF074C02091C50330910A
:102E4000C6034091A1035091A203B901641B750B05
:102E5000623071050CF465C001969093D0038093A5
:102E6000CF033093A2032093A10308E313E0C0E053
:102E7000D0E020E030E0A901F80160817181828119
:102E800093810E94E429811145C020E030E0A9012E
:102E9000F80164817581868197810E94E4298111FE
:102EA00039C00E94872D60E570E00E94D62C7C011D
:102EB0000E94A8028C0190E5C92ED12CB801C7014F
:102EC0000E949008882351F00E94872DB6010E942D
:102ED000D62C7C010E94A8028C01F0CF83E0CC0F9D
:102EE000DD1F8A95E1F7C85CDC4FB701FF0C880B4A
:102EF000990B0E94982A688379838A839B83B801FF
:102F0000110F880B990B0E94982A6C837D838E8306
:102F10009F8307C02196085F1F4FC530D10509F078
:102F2000A8CFDF91CF911F910F91FF90EF90DF908D
:102F3000CF9008954F925F926F927F928F929F925F
:102F4000AF92BF92CF92DF92EF92FF920F93CF9307
:102F5000DF9300D000D000D0CDB7DEB780E193E0A2
:102F60009E838D83ED81FE81C080D180E280F380DD
:102F700020E030E0A901C701B6010E94E4298823BE
:102F800009F473C0ED81FE8184809580A680B780AE
:102F900020E030E0A901C501B4010E94E4298823A2
:102FA00009F463C020E030E040E850E4C501B4011A
:102FB0000E9478290E94602A2B013C0120E030E029
:102FC00040E850E4C701B6010E9478290E94602AB7
:102FD00069837A838B839C83C501B4010E94602A34
:102FE0004B015C01C701B6010E94602ADC01CB01E4
:102FF00001E0920149815A81B4010E94A623ED812A
:10300000FE8184809580A680B780C080D180E280D8
:10301000F38020E030E040E850E4C501B4010E94B4
:1030200078290E94602A2B013C01C701B6010E9449
:10303000602A69837A838B839C83C501B4010E94D3
:10304000602A4B015C0120E030E040E850E4C70119
:10305000B6010E9478290E94602ADC01CB0192010E
:1030600049815A81B4010E94A6238D819E810896D0
:103070009E838D838853934009F074CF26960FB6B4
:10308000F894DEBF0FBECDBFDF91CF910F91FF90BF
:10309000EF90DF90CF90BF90AF909F908F907F90F8
:1030A0006F905F904F9008952F923F924F925F9252
:1030B0006F927F928F929F92AF92BF92CF92DF9248
:1030C000EF92FF920F931F93CF93DF9300D000D026
:1030D000CDB7DEB7C0908F03D090900325E0C21625
:1030E000D1040CF076C0E090C503F090C603809147
:1030F000C7039091C803F701E81BF90B33970CF451
:1031000068C08090BB039090BC03A090BD03B090BA
:10311000BE03C501B4010E94602A7A83698340908E
:103120008303509084036090850370908603C301ED
:10313000B2010E94602A1B0100E113E01C821B8285
:1031400020E030E0A901F8016081718182819381E2
:103150000E94E429811131C020E030E0A901F8018A
:1031600064817581868197810E94E429811125C03F
:1031700069817A81C1010E94900881111EC0FFEF10
:10318000CF1ADF0AD0929003C0928F03F092C80347
:10319000E092C7032B813C8183E0220F331F8A9585
:1031A000E1F7205F3C4FF9014082518262827382D5
:1031B00084829582A682B7820CC02B813C812F5FCE
:1031C0003F4F3C832B83085F1F4F2530310509F0AB
:1031D000B7CF0F900F900F900F90DF91CF911F916D
:1031E0000F91FF90EF90DF90CF90BF90AF909F90A6
:1031F0008F907F906F905F904F903F902F900895A9
:10320000EF92FF920F931F93CF93DF9380917D03F3
:1032100090917E0305978CF180918B0390918C03A4
:10322000892B59F58091C3039091C403892B29F50B
:103230000E94872D60E570E00E94D62C8C010E94D0
:10324000A802EC0180E5E82EF12CBE01C8010E9425
:103250009008882351F00E94872DB7010E94D62C38
:103260008C010E94A802EC01F0CF10938C03009314
:103270008B03D093C403C093C303DF91CF911F91FD
:103280000F91FF90EF9008950F9380918B03909191
:103290008C03009709F44BC06091C3037091C40381
:1032A0006115710509F443C0AC014C5F5F4F01E04B
:1032B0009B010E94A6236091C3037091C403809177
:1032C0008B0390918C039B012C5F3F4FAC010E94BC
:1032D000A6236091C3037091C40380918B039091E6
:1032E0008C0304969B012C5F3F4FAC010E94A623E8
:1032F00080918B0390918C036091C3037091C40300
:103300006C5F7F4FAC014C5F5F4F9B010E94A62317
:103310006091C3037091C4036E5F7F4F80918B03F4
:1033200090918C0341E003960F910C946D230F91C3
:1033300008958F929F92AF92BF92CF92DF92EF92B9
:10334000FF92CF93DF9380917B0390917C03892B35
:10335000F1F58091870390918803892BC1F5C09185
:10336000C503D091C60380918103909182039E0191
:10337000281B390B2530310554F16091BB03709146
:10338000BC038091BD039091BE030E94602A6B0133
:103390007C016091830370918403809185039091F7
:1033A00086030E94602A4B015C01B601C4010E94A1
:1033B000900881110CC0D0938203C0938103909236
:1033C0007C0380927B03D0928803C0928703DF91B5
:1033D000CF91FF90EF90DF90CF90BF90AF909F90F4
:1033E0008F9008950F9380917B0390917C030097B9
:1033F000F9F0609187037091880361157105C1F040
:1034000002969B012C5F3F4F01E0AC010E94A62376
:1034100080917B0390917C03609187037091880376
:103420006E5F7F4FAC014C5F5F4F9B010E94A623F4
:103430000F9108950E94DC100E9436110E944419D9
:103440000E942A160E949A170E94F2190E944B1499
:103450000E94920A0C94AB0DFC0101900020E9F748
:103460003197BF01681B790B0C940020CF93DF9339
:10347000EC010E94511F89930A97D9F7DF91CF91F0
:1034800008956F927F928F929F92AF92BF92CF9248
:10349000DF92EF92FF920F931F93CF93DF93CDB7FD
:1034A000DEB7C856D1090FB6F894DEBF0FBECDBF48
:1034B0008091600390916103029709F05FC1809150
:1034C0006603811128C010927E0310927D03109232
:1034D0006101109260010E94351F0E944E1F8823D7
:1034E000E1F3E0E0F1E01082118212821382148293
:1034F000158216821782108611861286138614860C
:10350000158616861786709621E0E034F20759F783
:1035100081E0809366030E94741F882309F42EC102
:103520000E94511F7C01FF928F938DED91E09F933C
:103530008F931F9280E28F938E010F5B1F4F1F931B
:103540000F930E94C12EC8010E942C1A0FB6F89446
:10355000DEBF0FBECDBF94E5E916F10409F053C0FC
:10356000C8010E94361AC8010E942C1A6E01E1E6B9
:10357000CE0ED11C60916601709167018091680147
:10358000909169010E94602AF601718360836091C5
:1035900062017091630180916401909165010E94C4
:1035A000602A7A836983CE0101969F938F93DF927D
:1035B000CF9283EF91E09F938F931F930F930E947D
:1035C000F12EF60160817181072E000C880B990B9A
:1035D0000E94982A609383037093840380938503E9
:1035E0009093860369817A81072E000C880B990BD2
:1035F0000E94982A6093BB037093BC038093BD0321
:103600009093BE03B5C09AE4E916F10499F5C80198
:103610000E94361AC8010E942C1A6E01E1E6CE0EF5
:10362000D11C8091620390916303F60191838083A2
:1036300080916A0190916B019A838983CE010196F2
:103640009F938F93DF92CF9283EF91E09F938F931D
:103650001F930F930E94F12EF60180819181909328
:1036600092038093910389819A8190938A03809336
:1036700089037EC097E5E916F10409F081C08091C5
:1036800060019091610106970CF07AC08E010F5F86
:103690001F4FC8010E94361AC8010E942C1A3E0111
:1036A000E1E66E0E711C7F926F926E01F3E6CF0E13
:1036B000D11CDF92CF925E0125E6A20EB11CBF9213
:1036C000AF924E0187E6880E911C9F928F928DEEED
:1036D00091E09F938F931F930F930E94F12E00917F
:1036E000600110916101C80101969093610180937E
:1036F000600124E0000F111F2A95E1F700501F4FD1
:10370000F40160817181072E000C880B990B0E94D7
:10371000982AF8016083718382839383F501608125
:103720007181072E000C880B990B0E94982AF801D2
:103730006483758386839783F60160817181072E88
:10374000000C880B990B0E94982AF80160877187FA
:1037500082879387F30160817181072E000C880BAB
:10376000990B0E94982AF801648775878687978746
:103770000FB6F894DEBF0FBECDBF02C0E12CF12C16
:10378000C7010E94F60A0E9491140E9400198091BC
:10379000680381110AC00E948F110E940D170E94B8
:1037A00099190E9454180E94210E99E6E916F10415
:1037B00009F05AC0809168031F928F9381E0209195
:1037C000640330916503232B09F480E01F928F93EB
:1037D00080917E038F9380917D038F938091D0039E
:1037E0008F938091CF038F93809190038F938091DB
:1037F0008F038F938091BA038F938091B9038F9336
:103800008091A0038F9380919F038F938091C20337
:103810008F938091C1038F93809161038F938091E7
:1038200060038F938091C0038F938091BF038F9328
:103830008091CE038F938091CD038F9389EF91E098
:103840009F938F931F9280E48F938E010F5F1F4F82
:103850001F930F930E94C12EC8010E942C1A0FB60D
:10386000F894DEBF0FBECDBF80917503811104C0F7
:10387000FCE6EF16F10461F42FE785EB91E02150AF
:1038800080409040E1F700C0000081E08093670332
:1038900080917303811104C0E0E7EE16F104D1F4C6
:1038A000FFE725EB81E0F15020408040E1F700C0C8
:1038B000000001E02FE230E044E550E06FE270E00C
:1038C00080E090E00E94A6239091680381E0892720
:1038D0008093680380917203811105C096E6E91612
:1038E000F10409F097C0EFE7F5EB21E0E150F0407B
:1038F0002040E1F700C00000E090B903F090BA0367
:1039000084E1E816F1040CF085C0C090C503D090A6
:10391000C60360917F0370918003072E000C880B13
:10392000990B0E94982A4B015C01B6010D2C000CEA
:10393000880B990B0E94982A20E030E040E05FE37A
:103940000E9477299B01AC01C501B4010E94E429C2
:1039500018160CF45FC080917D0390917E0303974D
:103960000CF458C090E7A92E92E0B92E00E010E0C8
:1039700020E030E0A901F5016081718182819381AD
:103980000E94E42981113DC020E030E0A901F50149
:1039900064817581868197810E94E429811131C0FB
:1039A00083E0000F111F8A95E1F700591D4F6091C8
:1039B000910370919203072E000C880B990B0E94C3
:1039C000982AF801608371838283938360918903CD
:1039D00070918A03072E000C880B990B0E94982A7D
:1039E000F8016483758386839783D0928003C092A5
:1039F0007F03FFEFEF1AFF0AF092BA03E092B903D8
:103A000009C00F5F1F4F28E0A20EB11C0431110541
:103A100009F0AECF0E941A1AC859DF4F0FB6F894BA
:103A2000DEBF0FBECDBFDF91CF911F910F91FF90F1
:103A3000EF90DF90CF90BF90AF909F908F907F904E
:103A40006F90089583E08093BF009FEF9093D10023
:103A50001092C00099E09093C10095E09093C2004D
:103A60001092C300109280008093810081E08093C7
:103A70006F0014BC95BD80936E0078940895229ACF
:103A8000239A86988598209821982798509851983D
:103A90000895CF93DF93CDB7DEB7C054D1090FB6E9
:103AA000F894DEBF0FBECDBF80E88093610081E057
:103AB000809361008FE30E94B1250E9438230E9409
:103AC000E1250E94221D0E943F1D1092C403109206
:103AD000C30310928C0310928B0310926503109213
:103AE0006403109288031092870310927C03109253
:103AF0007B030E940E0A0E941F0A85E090E09093CB
:103B0000C2038093C103109268031092C003109205
:103B1000BF031092CE031092CD0310926C0210924C
:103B20006D0210926E0210926F021092A00310921A
:103B30009F031092900310928F031092D003109263
:103B4000CF0310927E0310927D031092BA0310925D
:103B5000B9031092C8031092C7031092A2031092E7
:103B6000A1031092800310927F031092820310929F
:103B70008103109265031092640380E4E3E8F1E0AE
:103B8000DE01119601900D928A95E1F7FE013196C2
:103B9000A0E0B1E0CE018F5B9F4F408151816281F7
:103BA00073814D935D936D937C93139744815581FD
:103BB0006681778114964D935D936D937C931797EF
:103BC000408551856285738518964D935D936D93FD
:103BD0007C931B9744855585668577851C964D9308
:103BE0005D936D937C931F9770965096E817F90735
:103BF000A1F6E8E3F3E080E693E0108211821282FE
:103C00001382148215821682178238968E179F07A8
:103C1000A1F7E0E1F3E088E393E0108211821282E1
:103C20001382148215821682178238968E179F0788
:103C3000A1F7E0E7F2E080E193E0108211821282C6
:103C40001382148215821682178238968E179F0768
:103C5000A1F7C05CDF4F0FB6F894DEBF0FBECDBF3B
:103C6000DF91CF91089521E048E352E06AE070E0EF
:103C700085E090E00E946E2521E045E452E064E199
:103C800070E085E090E00E946E2521E04FE452E074
:103C90006EE170E085E090E00E946E2580917303F4
:103CA000882319F081E080936703089521E045E5BA
:103CB00052E06AE070E085E090E00E946E2521E02D
:103CC0004FE552E064E170E085E090E00E946E25EF
:103CD00080917303882329F00E94491D81E080931D
:103CE00067030895EF92FF920F931F93CF93DF9393
:103CF00083E090E090938E0380938D030E94491D92
:103D0000569A1092610310926003CFEFDFEF20917B
:103D10008D0330918E038091600390916103281789
:103D200039070CF494C00E94652381E00E943C2373
:103D30007C0180E00E943C238C01B701FF0C880BC2
:103D4000990B0E94982A20E030E040E85AE30E9454
:103D50008C2B20E030E040E05FE30E947729609305
:103D6000C9037093CA038093CB039093CC03B8012B
:103D7000110F880B990B0E94982A20E030E040E850
:103D80005AE30E948C2B6093930370939403809367
:103D900095039093960380916403909165031816A0
:103DA00019064CF42A9B02C02A9801C02A9A2B9922
:103DB00003C02B9A02C02A982B988091600390919F
:103DC0006103009719F40E94331E0EC08F3F2FEF3E
:103DD000920729F40E94561E0E94491D05C018161C
:103DE000190614F40E94411A0E945223209167037D
:103DF000222379F080916003909161030196909362
:103E000061038093600310927E0310927D031092F1
:103E100066038091C1039091C203181619065CF4E1
:103E2000409160035091610380918D0390918E03C6
:103E30004817590721F4D0936103C09360032223EC
:103E400009F471CF109268031092670360CF80E08D
:103E500090E0DF91CF911F910F91FF90EF90089527
:103E60008091E80080FFFCCF089581E08093D70027
:103E700080EA8093D80082E189BD09B400FEFDCFBD
:103E800080E98093D8001092E00010927A0310929B
:103E900077038CE08093E2007894089580917A0310
:103EA00008959FB7F89480917A03882369F083E09E
:103EB0008093E9002BE68091E80085FD09C082FF30
:103EC00003C02093E800F7CF9FBF8FEF9FEF0895C7
:103ED0008091F1002091E80025FD03C02BE620939E
:103EE000E8009FBF90E008952FB7F89480917A037F
:103EF000811102C080E010C083E08093E9008091CE
:103F0000F200811109C09091E80092FFF3CF95FD76
:103F1000F1CF9BE69093E8002FBF089580917A033C
:103F2000882371F08FB7F89493E09093E9002BE623
:103F30009091E80095FF03C02093E800F9CF8FBF70
:103F4000089590917A03992371F09FB7F89424E033
:103F50002093E90020917803222349F02091E80082
:103F600025FD03C09FBF8FEF089510927803209125
:103F7000E400275E34E04091E80045FD12C09FBF99
:103F80009091E400291304C081E080937803EBCF83
:103F900090917A03992339F39FB7F8943093E9000D
:103FA000EACF8093F1008091E80085FD03C08AE3A9
:103FB0008093E80085E0809379039FBF80E00895B7
:103FC00090917A039923D1F09FB7F89424E020933D
:103FD000E9002091E80025FD02C09FBF0FC080933B
:103FE000F1008091E80085FD03C08AE38093E8003A
:103FF00085E0809379039FBF80E008958FEF089557
:104000000F931F93CF93DF93DC01CB0120917A03B1
:10401000222371F02FB7F89434E03093E900309107
:104020007803332349F03091E80035FD03C02FBFFA
:104030008FEF43C110927803C4E0D0E41AE305E0A7
:10404000009709F439C13091E400375E4091E800EF
:1040500045FD12C02FBF2091E400321304C081E05F
:1040600080937803E5CF20917A03222309F32FB7B9
:10407000F894C093E900EACF3091F200ED2FE31BF2
:104080004E2F50E08417950708F4E82F8E1B9109F6
:104090004E2F50E04134510508F001C1FA01E35AB6
:1040A000FF4F0C94EA2C3C913093F10011963C9117
:1040B0003093F10011963C913093F10011963C91B0
:1040C0003093F10011963C913093F10011963C91A0
:1040D0003093F10011963C913093F10011963C9190
:1040E0003093F10011963C913093F10011963C9180
:1040F0003093F10011963C913093F10011963C9170
:104100003093F10011963C913093F10011963C915F
:104110003093F10011963C913093F10011963C914F
:104120003093F10011963C913093F10011963C913F
:104130003093F10011963C913093F10011963C912F
:104140003093F10011963C913093F10011963C911F
:104150003093F10011963C913093F10011963C910F
:104160003093F10011963C913093F10011963C91FF
:104170003093F10011963C913093F10011963C91EF
:104180003093F10011963C913093F10011963C91DF
:104190003093F10011963C913093F10011963C91CF
:1041A0003093F10011963C913093F10011963C91BF
:1041B0003093F10011963C913093F10011963C91AF
:1041C0003093F10011963C913093F10011963C919F
:1041D0003093F10011963C913093F10011963C918F
:1041E0003093F10011963C913093F10011963C917F
:1041F0003093F10011963C913093F10011963C916F
:104200003093F10011963C913093F10011963C915E
:104210003093F10011963C913093F10011963C914E
:104220003093F10011963C913093F10011963C913E
:104230003093F10011963C913093F10011963C912E
:104240003093F10011963C913093F10011963C911E
:104250003093F10011963C913093F10011963C910E
:104260003093F10011963C913093F10011963C91FE
:104270003093F10011963C913093F10011963C91EE
:104280003093F10011963C913093F10011963C91DE
:104290003093F10011963C913093F10011963C91CE
:1042A0003093F10011963091E80035FF1093E8004B
:1042B000009379032FBFC4CE80E0DF91CF911F918F
:1042C0000F9108958FB7F89490917903992341F055
:1042D00094E09093E9009AE39093E80010927903B8
:1042E0008FBF0895609178017091790180917A0172
:1042F00090917B01089580917C01089580917D01CA
:10430000089580917E0108958091770308959FB765
:10431000F89420917A03222339F022E02093E900D7
:104320002091E80025FD03C09FBF8FEF089521EA8B
:104330002093F10020E22093F1001092F1001092FE
:10434000F1001092F1001092F10021E02093F100B1
:104350001092F1008093F1008AE38093E8009FBF00
:1043600080E008951F920F920FB60F9211248F9341
:104370009F938091E1001092E10083FF11C01092A1
:10438000E90091E09093EB001092EC0092E19093A1
:10439000ED0098E09093F00010927A03109277036A
:1043A00082FF13C080917A03882379F0809179038A
:1043B000882359F0815080937903811106C084E0ED
:1043C0008093E9008AE38093E8009F918F910F909A
:1043D0000FBE0F901F9018951F920F920FB60F925D
:1043E0001124FF920F931F932F933F934F935F934B
:1043F0006F937F938F939F93AF93BF93CF93DF93ED
:10440000EF93FF931092E9008091E80083FF17C1BA
:10441000F090F1008091F1000091F1009091F10095
:1044200010E0192BC091F1009091F100D0E0D92B50
:104430002091F1006091F10092EF9093E8008630B6
:1044400009F049C088E692E042E952E0FC01A591FA
:10445000B4910A171B07D9F4FC013296A591B491C7
:10446000CA17DB07A1F4FC01349645915491FC0175
:104470003696849130E0362B2F3F310519F010F03D
:104480002FEF30E0281708F4822F3EEF0CC007967C
:1044900048175907D9F6D3C0490F511D891B3093CE
:1044A000E8008823A9F09091E800292F2570D9F31E
:1044B00092FDC8C0982F813108F090E1FA01292FB0
:1044C000222351F364916093F10021503196F8CF8B
:1044D000903149F3B7C0853049F48EEF8093E800FE
:1044E0000E94301F00680093E300ACC0893059F58A
:1044F000F110A5C000937A0310927703109279030C
:104500008EEF8093E80041E087E293E04093E9007A
:104510009C012F5F3F4FFC0154915093EB005523BA
:1045200059F0F90124912093EC009C012D5F3F4F3D
:104530003196E491E093ED004F5F453011F0C901F1
:10454000E5CF8EE177C0883051F4F0E8FF1277C0F4
:104550000E94301F80917A038093F10049C081321C
:1045600081F481EAF8126BC00E94301FE8E7F1E0A5
:104570008FE791E021912093F1008E179F07D1F7EB
:1045800037C08032A9F491E2F91259C08091E80055
:1045900082FFFCCFE8E7F1E08FE791E02091F100A6
:1045A00021938E179F07D1F78BEF8093E80020C0EF
:1045B000823241F4E1E2FE1242C0009377030E948E
:1045C000301F16C0811118C00E94301FF2E8FF1280
:1045D0000AC0C093E9008091EB0085FB882780F931
:1045E0001092E90001C080E08093F1001092F10088
:1045F0008EEF8093E80026C0982F9D7F9130F9F4CC
:1046000092E0F9121CC0012BD1F4CF779FEF9C0FE1
:104610009430A8F49EEF9093E800C093E9008330B3
:1046200071F089E18093EB0081E090E001C0880F98
:10463000CA95EAF78093EA001092EA0003C081E28B
:104640008093EB00FF91EF91DF91CF91BF91AF91FC
:104650009F918F917F916F915F914F913F912F919A
:104660001F910F91FF900F900FBE0F901F90189504
:1046700087E880937A000895982F9F7190649093B3
:104680007C00807280937B0080917A0080648093AC
:104690007A0080917A0086FDFCCF8091780090911D
:1046A00079000895CF93DF9360E080E00E94EE25CB
:1046B000C1EDD3E0699181E00E94932585E0C93C7A
:1046C000D807C1F7DF91CF910895E1EDF3E01192A2
:1046D00085E0E93CF807D9F7089584359105A8F5F8
:1046E0006033710590F59B0173E0359527957A95B8
:1046F000E1F76770452BA1F044E5429FF001439F2D
:10470000F00D11248E0F9F1FFC01EF52FC4F81E032
:1047100090E001C0880F6A95EAF79081892B14C058
:1047200044E5429FF001439FF00D11248E0F9F1F1F
:10473000FC01EF52FC4F81E090E001C0880F6A95C8
:10474000EAF7809590818923808308952F923F9284
:104750004F925F926F927F928F929F92AF92BF9291
:10476000CF92DF92EF92FF920F931F93CF93DF933D
:10477000CDB7DEB72E970FB6F894DEBF0FBECDBF14
:104780001C013B012A013A8329838417950771F59F
:104790007C836B8329813A81621673069CF48B813A
:1047A0009C81281739070CF41AC1A8016B817C8100
:1047B000C1010E946D232B813C812F5F3F4F3C83C1
:1047C0002B83E8CFAB81BC8129813A81A217B30743
:1047D0000CF405C1A8016B817C81C1010E946D238D
:1047E0008B819C8101979C838B83D4CF89819A8113
:1047F0006817790751F53A822982241435049CF40C
:10480000A981BA814A165B060CF4E9C0A801B3017C
:1048100089819A810E946D2329813A812F5F3F4FC0
:104820003A832983EACF29813A81241535050CF48E
:10483000D6C0A801B30189819A810E946D23A98104
:10484000BA811197BA83A983D8CF4215530554F47E
:10485000872D69807A8069838A83922D832D1A013E
:10486000492E582EB20162197309072E000C880BCD
:10487000990B0E94982A6F83788789879A87698124
:104880007A8166197709072E000C880B990B0E9414
:10489000982A4B015C012F81388549855A850E94F1
:1048A000EE296B837C838D839E8320E030E0A90119
:1048B0000E94872B87FF09C08B819C81AD81BE81BF
:1048C000B0588B839C83AD83BE83C12CD12C7601E1
:1048D00020E030E0A9016F81788589859A850E9462
:1048E000872B18160CF077C0421453040CF477C0D1
:1048F000A801B301C1010E946D232B813C814D8130
:104900005E81C701B6010E9478296B017C0120E01D
:1049100030E040E05FE30E94872B87FF10C020E07B
:1049200030E0A9016F81788589859A850E94872B5F
:1049300018160CF04CC09FEF291A390AC9CF20E095
:1049400030E0A901C501B4010E94872B1816CCF5EF
:1049500029813A812615370514F3A801B301C10155
:104960000E946D23A1E0B0E0BC87AB8720E030E07F
:10497000A901C501B4010E94872B181614F01C86EA
:104980001B8621E030E03E872D8720E030E0A90142
:10499000C501B4010E94E42987FD02C01E861D8660
:1049A0008B859C85AD85BE858A1B9B0B680E791E09
:1049B00020E030E040E85FE3C701B6010E947729BC
:1049C000A4CF89819A81681679063CF6A8CFA1E028
:1049D0002A1A31087DCF241435040CF089CF2E9685
:1049E0000FB6F894DEBF0FBECDBFDF91CF911F9100
:1049F0000F91FF90EF90DF90CF90BF90AF909F907E
:104A00008F907F906F905F904F903F902F90089580
:104A10002F923F924F925F926F927F928F929F92CE
:104A2000AF92BF92CF92DF92EF92FF920F931F93BC
:104A3000CF93DF936C014B01190185E0489F200162
:104A40001124E12CF12C80EA481A51086624639461
:104A5000712CF201EE0DFF1DEF5CFC4FE49121146F
:104A6000310409F4E09500E010E0CE2FD0E05601CB
:104A7000AE0CBF1CA301002E02C0440F551F0A94A8
:104A8000E2F74C235D23002E02C0559547950A940A
:104A9000E2F7B401600F711FC5010E946D230F5F23
:104AA0001F4F0830110531F78FEFE81AF80A85E03B
:104AB000E816F10471F6DF91CF911F910F91FF90ED
:104AC000EF90DF90CF90BF90AF909F908F907F90AE
:104AD0006F905F904F903F902F900895CF92DF920C
:104AE000EF92FF920F931F93CF93DF937B018A0185
:104AF0006901D82FC0E0F801EC0FF11D408144237B
:104B000049F09601B7018D2F90E00E940825DB5FE8
:104B1000CF5FF1CFDF91CF911F910F91FF90EF9079
:104B2000DF90CF90089525B12F7D30E2839FC001A3
:104B30001124822B85B95F9887E090E070E08F9810
:104B40009B01082E02C0359527950A94E2F720FFB5
:104B500002C02E9A01C02E988F9A019780F75F9A13
:104B60000895CF93C82F579A249A259A269A879A00
:104B70002C985F9A2C9A61E280E00E9493256C2F1A
:104B8000606880E00E94932564E080E00E949325A5
:104B900063E180E00E9493256CE080E00E94932511
:104BA00060E280E00E9493256CE080E00E94932503
:104BB00060E480E00E94932560E880E0CF910C944F
:104BC0009325CF93DF93C8EFD1E060E081E00E94AE
:104BD00093252197D1F7DF91CF910895CF93C82FD7
:104BE000606480E00E9493256C2F606880E0CF9124
:104BF0000C949325A0E1B0E0E0E0F6E20C94F02CF8
:104C00007C011B016A01FC0117821682838181FFEE
:104C100044C39E012F5F3F4F3901F7019381F1019A
:104C200093FD859193FF81911F01882309F431C37E
:104C3000853239F493FD859193FF81911F0185326F
:104C400039F4B70190E00E94852E56016501E5CF49
:104C500010E0512C912CFFE1F915D8F08B3279F04E
:104C600038F4803279F08332A1F4F92DF0612EC04E
:104C70008D3261F0803369F4292D21602DC0392DEA
:104C80003260932E892D8460982E2AC0E92DE86029
:104C900015C097FC2DC020ED280F2A3088F496FE11
:104CA00006C03AE0139F200D1124122F19C08AE08C
:104CB000589E200D1124522EE92DE0629E2E10C028
:104CC0008E3231F496FCE5C2F92DF0649F2E08C0B7
:104CD0008C3621F4292D2068922E02C0883641F4AA
:104CE000F10193FD859193FF81911F018111B3CF54
:104CF0009BEB980F933020F4992D9061805E07C054
:104D00009BE9980F933008F066C1992D9F7E96FF1E
:104D100016E09F73992E853619F49064992E08C079
:104D2000863621F4392F3068932E02C011111150AC
:104D300097FE07C01C3350F444244394410E27E0EF
:104D40000BC0183038F027E017E005C027E09CE3DF
:104D5000492E02C0212F412C560184E0A80EB11C1F
:104D6000F6016081718182819381042DA3010E94EB
:104D7000972D6C01F981FC87F0FF02C0F3FF06C09C
:104D800091FC06C092FE06C000E205C00DE203C021
:104D90000BE201C000E08C858C7019F001115AC241
:104DA0009BC297FE10C04C0CFC85F4FF04C08A81A6
:104DB000813309F44A94141474F528E0241578F525
:104DC00088E0482E2CC096FC2AC0812F90E08C15DC
:104DD0009D059CF03CEFC3163FEFD30674F0892D80
:104DE0008068982E0AC0E2E0F0E0EC0FFD1FE10FB2
:104DF000F11D8081803319F411501111F4CF97FE09
:104E00000EC044244394410E812F90E0C816D90669
:104E10002CF41C1904C04424439401C010E097FEF4
:104E200006C01C141D0434F4C601019605C085E0BB
:104E300090E002C081E090E001110196112331F071
:104E4000212F30E02F5F3F4F820F931F252D30E041
:104E50008217930714F4581A01C0512C892D8970B8
:104E600049F4552039F0B70180E290E00E94852E88
:104E70005A94F7CF002329F0B701802F90E00E94C9
:104E8000852E93FC09C0552039F0B70180E390E0EE
:104E90000E94852E5A94F7CF97FE4CC04601D7FE4C
:104EA00002C0812C912CC60188199909F301E80FE1
:104EB000F91FFE87ED87960124193109388B2F875A
:104EC000012F10E01195019511093FEF831693060C
:104ED00029F4B7018EE290E00E94852EC814D9040F
:104EE0004CF08F8598898815990524F4ED85FE8509
:104EF000818101C080E3F1E08F1A91082D853E8504
:104F00002F5F3F4F3E872D87801691062CF0B7010B
:104F100090E00E94852ED9CFC814D90441F49A811B
:104F2000963320F4953319F43C8534FF81E3B701BF
:104F300090E04EC08A81813319F09C859F7E9C87CA
:104F4000B70190E00E94852E111105C094FC18C095
:104F500085E690E017C0B7018EE290E00E94852EB2
:104F60001E5F82E001E0080FF301E80FF11D808170
:104F7000B70190E00E94852E802F0113F3CFE6CF7A
:104F800085E490E0B7010E94852ED7FC06C0C114CD
:104F9000D10441F4EC85E4FF05C0D194C194D1085B
:104FA0008DE201C08BE2B70190E00E94852E80E384
:104FB0002AE0C216D1042CF08F5FFAE0CF1AD10894
:104FC000F7CFB70190E00E94852EB701C601C096C9
:104FD0000E94852E54C1833631F0833779F08335B2
:104FE00009F056C020C0560132E0A30EB11CF601F4
:104FF0008081898301E010E0630112C05601F2E074
:10500000AF0EB11CF601C080D18096FE03C0612FA7
:1050100070E002C06FEF7FEFC6010E947A2E8C0114
:10502000F92DFF7714C0560122E0A20EB11CF60143
:10503000C080D18096FE03C0612F70E002C06FEF88
:105040007FEFC6010E946F2E8C01F92DF0689F2E14
:10505000F3FD1AC0852D90E008171907A8F4B701D1
:1050600080E290E00E94852E5A94F4CFF60197FCDE
:10507000859197FE81916F01B70190E00E94852E86
:1050800051105A94015011090115110579F7F7C013
:10509000843611F0893661F5560197FE09C024E087
:1050A000A20EB11CF60160817181828193810AC0D8
:1050B000F2E0AF0EB11CF60160817181072E000C89
:1050C000880B990BF92DFF769F2E97FF09C09095BD
:1050D0008095709561957F4F8F4F9F4FF0689F2E01
:1050E0002AE030E0A3010E940A2FC82EC6183FC054
:1050F000092D853721F40F7E2AE030E01DC0097F9D
:105100008F3691F018F4883559F0C3C0803719F004
:10511000883711F0BEC0006104FF09C0046007C0F9
:1051200094FE08C0066006C028E030E005C020E11B
:1051300030E002C020E132E0560107FF09C084E000
:10514000A80EB11CF601608171818281938108C033
:10515000F2E0AF0EB11CF6016081718180E090E059
:10516000A3010E940A2FC82EC6180F77902E96FE14
:105170000BC0092D0E7FC11650F494FE0AC092FC9C
:1051800008C0092D0E7E05C0DC2C092D03C0DC2CC7
:1051900001C0D12E04FF0DC0FE01EC0DF11D808178
:1051A000803311F4097E09C002FF06C0D394D39462
:1051B00004C0802F867809F0D39403FD11C000FF4E
:1051C00006C01C2DD51480F4150D1D190DC0D51465
:1051D00058F4B70180E290E00E94852ED394F7CF77
:1051E000D51410F45D1801C0512C04FF10C0B70194
:1051F00080E390E00E94852E02FF17C001FD03C0EE
:1052000088E790E002C088E590E0B7010CC0802FED
:10521000867859F001FF02C08BE201C080E207FDF1
:105220008DE2B70190E00E94852EC11638F4B701D7
:1052300080E390E00E94852E1150F7CFCA94F301CD
:10524000EC0DF11D8081B70190E00E94852EC11008
:10525000F5CF15C0F4E0F51560F584E0581A93FE1B
:105260001FC0011127C02C8523FF2AC00AE511E0C9
:10527000392D3071932EF8018491811124C055206D
:1052800009F4E4CCB70180E290E00E94852E5A94A4
:10529000F6CFF7018681978126C08FEF9FEF23C05D
:1052A000B70180E290E00E94852E5A945110F8CF09
:1052B000D8CF512CB701802F90E00E94852ED3CFFC
:1052C0000EE511E0D5CF91108052B70190E00E9419
:1052D000852E0F5F1F4FCFCF23E0251510F483E0FD
:1052E000BDCF512CC0CF6096E2E10C940C2D5058EC
:1052F000BB27AA270E948F290C94392B0E94002BD0
:1053000038F00E94072B20F039F49F3F19F426F45F
:105310000C94FD2A0EF4E095E7FB0C94F72AE92F94
:105320000E945E2B58F3BA1762077307840795072C
:1053300020F079F4A6F50C94802B0EF4E0950B2E5A
:10534000BA2FA02D0B01B90190010C01CA01A001D7
:105350001124FF27591B99F0593F50F4503E68F132
:105360001A16F040A22F232F342F4427585FF3CF73
:10537000469537952795A795F0405395C9F77EF444
:105380001F16BA0B620B730B840BBAF09150A1F08D
:10539000FF0FBB1F661F771F881FC2F70EC0BA0F13
:1053A000621F731F841F48F4879577956795B7959B
:1053B000F7959E3F08F0B0CF9395880F08F0992796
:1053C000EE0F9795879508950E94D32A08F481E0FF
:1053D00008950E94102BE3950C944A2B0E94022AF8
:1053E0000C94392B0E94072B58F00E94002B40F0A0
:1053F00029F45F3F29F00C94F72A51110C94812B6A
:105400000C94FD2A0E945E2B68F39923B1F3552377
:1054100091F3951B550BBB27AA27621773078407C7
:1054200038F09F5F5F4F220F331F441FAA1FA9F35D
:1054300035D00E2E3AF0E0E832D091505040E6954B
:10544000001CCAF72BD0FE2F29D0660F771F881FAC
:10545000BB1F261737074807AB07B0E809F0BB0B9F
:10546000802DBF01FF2793585F4F3AF09E3F5105B3
:1054700078F00C94F72A0C94812B5F3FE4F3983E6C
:10548000D4F3869577956795B795F7959F5FC9F79C
:10549000880F911D9695879597F90895E1E0660F1D
:1054A000771F881FBB1F621773078407BA0720F096
:1054B000621B730B840BBA0BEE1F88F7E0950895FF
:1054C0000E94672A6894B1110C94812B08950E9460
:1054D000662B88F09F5798F0B92F9927B751B0F0F5
:1054E000E1F0660F771F881F991F1AF0BA95C9F768
:1054F00014C0B13091F00E94802BB1E008950C945B
:10550000802B672F782F8827B85F39F0B93FCCF30D
:10551000869577956795B395D9F73EF490958095E4
:10552000709561957F4F8F4F9F4F0895E89409C004
:1055300097FB3EF490958095709561957F4F8F4FC6
:105540009F4F9923A9F0F92F96E9BB279395F695DC
:10555000879577956795B795F111F8CFFAF4BB0F5A
:1055600011F460FF1BC06F5F7F4F8F4F9F4F16C0BE
:10557000882311F096E911C0772321F09EE8872F48
:10558000762F05C0662371F096E8862F70E060E004
:105590002AF09A95660F771F881FDAF7880F96957D
:1055A000879597F90895990F0008550FAA0BE0E821
:1055B000FEEF16161706E807F907C0F012161306D5
:1055C000E407F50798F0621B730B840B950B39F415
:1055D0000A2661F0232B242B252B21F408950A267B
:1055E00009F4A140A6958FEF811D811D089597F9BB
:1055F0009F6780E870E060E008959FEF80EC089579
:1056000000240A94161617061806090608950024A1
:105610000A94121613061406050608950C94FD2A22
:105620000E94662BD8F3E894E0E0BB279F57F0F088
:105630002AED3FE049EC06C0EE0FBB0F661F771F57
:10564000881F28F0B23A62077307840728F0B25A1D
:10565000620B730B840BE3959A9572F7803830F4E4
:105660009A95BB0F661F771F881FD2F790480C943E
:10567000882C092E0394000C11F4882352F0BB0FE0
:1056800040F4BF2B11F460FF04C06F5F7F4F8F4F5A
:105690009F4F0895EF93E0FF07C0A2EA2AED3FE095
:1056A00049EC5FEB0E948F290E94392B0F900394E5
:1056B00001FC9058ECE3F1E00C949B2C57FD9058C2
:1056C000440F551F59F05F3F71F04795880F97FBC6
:1056D000991F61F09F3F79F0879508951216130680
:1056E0001406551FF2CF4695F1DF08C016161706AF
:1056F0001806991FF1CF86957105610508940895E4
:10570000E894BB2766277727CB0197F908950E9475
:10571000D32A08F48FEF08950E949F2B0C94392B05
:105720000E94002B38F00E94072B20F0952311F0E7
:105730000C94F72A0C94FD2A11240C94812B0E94BE
:105740005E2B70F3959FC1F3950F50E0551F629F3C
:10575000F001729FBB27F00DB11D639FAA27F00DCA
:10576000B11DAA1F649F6627B00DA11D661F829FF1
:105770002227B00DA11D621F739FB00DA11D621FD6
:10578000839FA00D611D221F749F3327A00D611DF3
:10579000231F849F600D211D822F762F6A2F1124D5
:1057A0009F5750409AF0F1F088234AF0EE0FFF1F08
:1057B000BB1F661F771F881F91505040A9F79E3F5F
:1057C000510580F00C94F72A0C94812B5F3FE4F391
:1057D000983ED4F3869577956795B795F795E795B5
:1057E0009F5FC1F7FE2B880F911D9695879597F9BE
:1057F00008950E94662BE8F09E37E8F09639B8F4D9
:105800009E3848F4672F782F8827985FF9CF8695C0
:105810007795679593959539D0F3B62FB1706B0F47
:10582000711D811D20F487957795679593950C944C
:105830006B2C0C94862C0C94812B9F930E94102B24
:105840000F9007FCEE5F0C944A2B19F416F40C949D
:10585000FD2A0C94862C0E94662BB8F39923C9F379
:10586000B6F39F57550B87FF0E94942C0024A0E6A7
:1058700040EA900180585695979528F4805C660F11
:10588000771F881F20F026173707480730F4621B60
:10589000730B840B202931294A2BA6951794079462
:1058A000202531254A2758F7660F771F881F20F0DB
:1058B00026173707480730F4620B730B840B200D53
:1058C000311D411DA09581F7B901842F9158880F92
:1058D000969587950895882371F4772321F0985041
:1058E000872B762F07C0662311F499270DC090519E
:1058F000862B70E060E02AF09A95660F771F881F6C
:10590000DAF7880F9695879597F908959F3F31F0BC
:10591000915020F4879577956795B795880F911DDD
:105920009695879597F9089591505040660F771F87
:10593000881FD2F708959F938F937F936F93FF9360
:10594000EF939B01AC010E948C2BEF91FF910E9481
:10595000AF2C2F913F914F915F910C948C2BDF9343
:10596000CF931F930F93FF92EF92DF927B018C01F5
:10597000689406C0DA2EEF010E949F2BFE01E89486
:10598000A5912591359145915591A6F3EF010E947E
:105990008F29FE019701A801DA9469F7DF90EF9053
:1059A000FF900F911F91CF91DF91089597FB072EE4
:1059B00016F4009407D077FD09D00E94272D07FC2C
:1059C00005D03EF4909581959F4F0895709561950F
:1059D0007F4F0895EE0FFF1F0590F491E02D09947D
:1059E0002F923F924F925F926F927F928F929F92EF
:1059F000AF92BF92CF92DF92EF92FF920F931F93DD
:105A0000CF93DF93CDB7DEB7CA1BDB0B0FB6F8948D
:105A1000DEBF0FBECDBF09942A88398848885F84CD
:105A20006E847D848C849B84AA84B984C884DF803E
:105A3000EE80FD800C811B81AA81B981CE0FD11D22
:105A40000FB6F894DEBF0FBECDBFED010895AA1BBF
:105A5000BB1B51E107C0AA1FBB1FA617B70710F059
:105A6000A61BB70B881F991F5A95A9F7809590958B
:105A7000BC01CD0108958F929F92AF92BF92CF92B9
:105A8000DF92EF92FF92CF93DF93EC0168817981EF
:105A90008A819B81611571058105910521F464E27C
:105AA00079ED8BE597E02DE133EF41E050E00E9486
:105AB000833249015A019B01AC01A7EAB1E40E947B
:105AC000A2326B017C01ACEEB4EFA50194010E94FF
:105AD000B032DC01CB018C0D9D1DAE1DBF1DB7FF8B
