:100000000C94C7010C94E4010C94E4010C94E401F9
:100010000C94E4010C94E4010C94E4010C94E401CC
:100020000C94E4010C94E4010C94E4010C94E401BC
:100030000C94E4010C94E4010C94E4010C94E401AC
:100040000C94E4010C94E4010C94E4010C94E4019C
:100050000C94E4010C94E4010C94E4010C9453021C
:100060000C94E4010C94E4010C94E4010C94E4017C
:100070000C94E4010C94E4010C94E4010C94E4016C
:100080000C94E4010C94E4010C94E4010C94E4015C
:100090000C94E4010C94E4010C94E4010C94E4014C
:1000A0000C94E4010C94E4010C94E4016E616E0084
:1000B000696E660000407A10F35A00A0724E18096B
:1000C0000010A5D4E80000E87648170000E40B54BF
:1000D000020000CA9A3B000000E1F505000080968E
:1000E0009800000040420F000000A08601000000C0
:1000F000102700000000E80300000000640000007A
:1001000000000A00000000000100000000002C7642
:10011000D888DC674F0823DFC1DFAE59E1B1B7965D
:10012000E5E3E453C63AE651997696E8E6C28426BA
:10013000EB898C9B62ED407C6FFCEFBC9C9F40F296
:10014000BAA56FA5F490055A2AF75C936B6CF96712
:100150006DC11BFCE0E40D47FEF520E6B500D0EDD7
:10016000902E0300943577050080841E080000203F
:100170004E0A000000C80C333333330F986E1283DD
:100180001141EF8D2114893BE65516CFFEE6DB18B1
:10019000D1844B381BF77C1D901DA4BBE424203276
:1001A00084725E228100C9F124ECA1E53D270000A4
:1001B00000000000005F00000007000700147F142B
:1001C0007F14242A7F2A1223130864623649552299
:1001D000500005030000001C2241000041221C00C9
:1001E00014083E081408083E0808005030000008B3
:1001F00008080808006060000020100804023E5152
:1002000049453E00427F40004261514946214145F7
:100210004B311814127F1027454545393C4A49494E
:100220003001710905033649494936064949291EF5
:100230000036360000005636000008142241001433
:100240001414141400412214080201510906324901
:1002500079413E7E1111117E7F494949363E414127
:1002600041227F4141221C7F494949417F090909B7
:10027000013E4149497A7F0808087F00417F4100DB
:100280002040413F017F081422417F404040407F91
:10029000020C027F7F0408107F3E4141413E7F09EE
:1002A0000909063E4151215E7F09192946464949FF
:1002B000493101017F01013F4040403F1F20402064
:1002C0001F3F4038403F6314081463070870080755
:1002D0006151494543007F4141000204081020005C
:1002E00041417F00040201020440404040400001BF
:1002F00002040020545454787F484444383844441D
:100300004420384444487F3854545418087E090126
:10031000020C5252523E7F0804047800447D400093
:100320002040443D007F1028440000417F40007C75
:10033000041804787C0804047838444444387C1455
:10034000141408081414187C7C0804040848545435
:100350005420043F4440203C4040207C1C2040204E
:100360001C3C4030403C44281028440C5050503C29
:100370004464544C44000836410000007F000000F3
:1003800041360800100808100878464146781124C4
:100390001FBECFEFDAE0DEBFCDBF11E0A0E0B1E0DD
:1003A000E2EBF8E102C005900D92AA32B107D9F74D
:1003B00023E0AAE2B1E001C01D92A033B207E1F749
:1003C0000E94D1020C94570C0C940000FA01E65DD7
:1003D000FE4F2081220F267090E002C095958795F0
:1003E0006A95E2F78170822B8083873031F4FA01BD
:1003F000EF5CFE4F81E080830895811104C0FA0113
:10040000EF5CFE4F10820895FC01EF5CFE4F81E02F
:100410009081911101C080E0089521E040E051E019
:100420006AE070E08AE090E00E94F40421E04DE090
:1004300051E064E170E08AE090E00E94F40421E081
:1004400047E151E06EE170E08AE090E00E94F40440
:100450000E94D80285E090E00E940402811101C050
:10046000FFCF0C946705CF93E1E6F0E080E880834E
:10047000C1E0C0838FE30E9437050E94670514BC6A
:1004800084E085BDC0936E007894229A239A869862
:100490008598209821982798509851980E94D802C2
:1004A000CF910C940D021F920F920FB60F92112450
:1004B0002F933F934F935F936F937F938F939F936C
:1004C000AF93BF93EF93FF9389B140E050E061E0B9
:1004D00070E00E94E60183B141E050E067E070E027
:1004E0000E94E60183B142E050E061E070E00E94CA
:1004F000E60189B143E050E060E070E00E94E6016F
:1005000083B144E050E060E070E00E94E6018FB10A
:1005100045E050E065E070E00E94E6018FB146E002
:1005200050E066E070E00E94E601FF91EF91BF911C
:10053000AF919F918F917F916F915F914F913F917B
:100540002F910F900FBE0F901F90189580E090E0B4
:100550000E94040281112A9A81E090E00E94040224
:1005600081112A9882E090E00E94040281112B9A66
:1005700083E090E00E94040281112B9884E090E0D7
:100580000E94040281112A9A85E090E00E940402F0
:1005900081112B9A86E090E00E94040281112A9A30
:1005A00008950E9433020E940D020E94A602FDCF10
:1005B000CF93DF9360E080E00E947405C8E3D1E050
:1005C000699181E00E94190583E0C033D807C1F723
:1005D000DF91CF910895E8E3F1E0119283E0E033F9
:1005E000F807D9F7089584359105A8F560337105AA
:1005F00090F59B0173E0359527957A95E1F7677043
:10060000452BA1F044E5429FF001439FF00D1124DA
:100610008E0F9F1FFC01E85CFE4F81E090E001C05F
:10062000880F6A95EAF79081892B14C044E5429FB0
:10063000F001439FF00D11248E0F9F1FFC01E85C19
:10064000FE4F81E090E001C0880F6A95EAF780953F
:1006500090818923808308952F923F924F925F92D9
:100660006F927F928F929F92AF92BF92CF92DF92C2
:10067000EF92FF920F931F93CF93DF93CDB7DEB727
:100680002E970FB6F894DEBF0FBECDBF1C013B0105
:100690002A013A8329838417950771F57C836B833C
:1006A00029813A81621673069CF48B819C812817FC
:1006B00039070CF41AC1A8016B817C81C1010E9429
:1006C000F3022B813C812F5F3F4F3C832B83E8CF8C
:1006D000AB81BC8129813A81A217B3070CF405C113
:1006E000A8016B817C81C1010E94F3028B819C81F6
:1006F00001979C838B83D4CF89819A81681779076E
:1007000051F53A822982241435049CF4A981BA81D6
:100710004A165B060CF4E9C0A801B30189819A81ED
:100720000E94F30229813A812F5F3F4F3A83298348
:10073000EACF29813A81241535050CF4D6C0A801E9
:10074000B30189819A810E94F302A981BA8111972C
:10075000BA83A983D8CF4215530554F4872D6980F5
:100760007A8069838A83922D832D1A01492E582E0F
:10077000B20162197309072E000C880B990B0E94B5
:10078000E3096F83788789879A8769817A816619F7
:100790007709072E000C880B990B0E94E3094B0187
:1007A0005C012F81388549855A850E946F096B83CA
:1007B0007C838D839E8320E030E0A9010E94930A10
:1007C00087FF09C08B819C81AD81BE81B0588B832E
:1007D0009C83AD83BE83C12CD12C760120E030E018
:1007E000A9016F81788589859A850E94930A1816D8
:1007F0000CF077C0421453040CF477C0A801B30185
:10080000C1010E94F3022B813C814D815E81C701B1
:10081000B6010E94FE086B017C0120E030E040E060
:100820005FE30E94930A87FF10C020E030E0A90137
:100830006F81788589859A850E94930A18160CF035
:100840004CC09FEF291A390AC9CF20E030E0A90136
:10085000C501B4010E94930A1816CCF529813A818A
:100860002615370514F3A801B301C1010E94F30254
:10087000A1E0B0E0BC87AB8720E030E0A901C50172
:10088000B4010E94930A181614F01C861B8621E0FE
:1008900030E03E872D8720E030E0A901C501B4019A
:1008A0000E946A0987FD02C01E861D868B859C8575
:1008B000AD85BE858A1B9B0B680E791E20E030E05B
:1008C00040E85FE3C701B6010E94FD08A4CF89811B
:1008D0009A81681679063CF6A8CFA1E02A1A310859
:1008E0007DCF241435040CF089CF2E960FB6F894E2
:1008F000DEBF0FBECDBFDF91CF911F910F91FF9053
:10090000EF90DF90CF90BF90AF909F908F907F90AF
:100910006F905F904F903F902F9008952F923F924D
:100920004F925F926F927F928F929F92AF92BF92FF
:10093000CF92DF92EF92FF920F931F93CF93DF93AB
:100940006C014B01190185E0489F20011124E12C25
:10095000F12C80EA481A510866246394712CF20144
:10096000EE0DFF1DE255FE4FE4912114310409F410
:10097000E09500E010E0CE2FD0E05601AE0CBF1C99
:10098000A301002E02C0440F551F0A94E2F74C2326
:100990005D23002E02C0559547950A94E2F7B401F5
:1009A000600F711FC5010E94F3020F5F1F4F0830D7
:1009B000110531F78FEFE81AF80A85E0E816F1041F
:1009C00071F6DF91CF911F910F91FF90EF90DF9023
:1009D000CF90BF90AF909F908F907F906F905F90DF
:1009E0004F903F902F900895CF92DF92EF92FF9219
:1009F0000F931F93CF93DF937B018A016901D82F57
:100A0000C0E0F801EC0FF11D4081442349F096014C
:100A1000B7018D2F90E00E948E04DB5FCF5FF1CF96
:100A2000DF91CF911F910F91FF90EF90DF90CF90CA
:100A3000089525B12F7D30E2839FC0011124822BC0
:100A400085B95F9887E090E070E08F989B01082E51
:100A500002C0359527950A94E2F720FF02C02E9A2E
:100A600001C02E988F9A019780F75F9A0895CF93CF
:100A7000C82F579A249A259A269A879A2C985F9A73
:100A80002C9A61E280E00E9419056C2F606880E07A
:100A90000E94190564E080E00E94190563E180E08E
:100AA0000E9419056CE080E00E94190560E280E078
:100AB0000E9419056CE080E00E94190560E480E066
:100AC0000E94190560E880E0CF910C941905CF933E
:100AD000DF93C8EFD1E060E081E00E941905219723
:100AE000D1F7DF91CF910895CF93C82F606480E054
:100AF0000E9419056C2F606880E0CF910C94190555
:100B0000A0E1B0E0E6E8F5E00C94980A7C011B0156
:100B10006A01FC0117821682838181FF44C39E0112
:100B20002F5F3F4F3901F7019381F10193FD8591CB
:100B300093FF81911F01882309F431C3853239F471
:100B400093FD859193FF81911F01853239F4B7019F
:100B500090E00E94BD0B56016501E5CF10E0512CDD
:100B6000912CFFE1F915D8F08B3279F038F480320E
:100B700079F08332A1F4F92DF0612EC08D3261F04D
:100B8000803369F4292D21602DC0392D3260932ED8
:100B9000892D8460982E2AC0E92DE86015C097FC45
:100BA0002DC020ED280F2A3088F496FE06C03AE0CA
:100BB000139F200D1124122F19C08AE0589E200D7A
:100BC0001124522EE92DE0629E2E10C08E3231F497
:100BD00096FCE5C2F92DF0649F2E08C08C3621F4F6
:100BE000292D2068922E02C0883641F4F10193FD30
:100BF000859193FF81911F018111B3CF9BEB980FDA
:100C0000933020F4992D9061805E07C09BE9980F86
:100C1000933008F066C1992D9F7E96FF16E09F7372
:100C2000992E853619F49064992E08C0863621F4E1
:100C3000392F3068932E02C01111115097FE07C052
:100C40001C3350F444244394410E27E00BC0183069
:100C500038F027E017E005C027E09CE3492E02C0EA
:100C6000212F412C560184E0A80EB11CF6016081B1
:100C7000718182819381042DA3010E94CF0A6C01AE
:100C8000F981FC87F0FF02C0F3FF06C091FC06C0AB
:100C900092FE06C000E205C00DE203C00BE201C0F7
:100CA00000E08C858C7019F001115AC29BC297FE2E
:100CB00010C04C0CFC85F4FF04C08A81813309F418
:100CC0004A94141474F528E0241578F588E0482E29
:100CD0002CC096FC2AC0812F90E08C159D059CF0BD
:100CE0003CEFC3163FEFD30674F0892D8068982E31
:100CF0000AC0E2E0F0E0EC0FFD1FE10FF11D808182
:100D0000803319F411501111F4CF97FE0EC0442412
:100D10004394410E812F90E0C816D9062CF41C197B
:100D200004C04424439401C010E097FE06C01C1484
:100D30001D0434F4C601019605C085E090E002C0B0
:100D400081E090E001110196112331F0212F30E074
:100D50002F5F3F4F820F931F252D30E0821793079F
:100D600014F4581A01C0512C892D897049F455206A
:100D700039F0B70180E290E00E94BD0B5A94F7CFA2
:100D8000002329F0B701802F90E00E94BD0B93FC57
:100D900009C0552039F0B70180E390E00E94BD0BF7
:100DA0005A94F7CF97FE4CC04601D7FE02C0812C63
:100DB000912CC60188199909F301E80FF91FFE87E4
:100DC000ED87960124193109388B2F87012F10E008
:100DD0001195019511093FEF8316930629F4B70188
:100DE0008EE290E00E94BD0BC814D9044CF08F85B0
:100DF00098898815990524F4ED85FE85818101C0C7
:100E000080E3F1E08F1A91082D853E852F5F3F4FDB
:100E10003E872D87801691062CF0B70190E00E9446
:100E2000BD0BD9CFC814D90441F49A81963320F46C
:100E3000953319F43C8534FF81E3B70190E04EC04F
:100E40008A81813319F09C859F7E9C87B70190E051
:100E50000E94BD0B111105C094FC18C085E690E0FE
:100E600017C0B7018EE290E00E94BD0B1E5F82E0CA
:100E700001E0080FF301E80FF11D8081B70190E058
:100E80000E94BD0B802F0113F3CFE6CF85E490E0E5
:100E9000B7010E94BD0BD7FC06C0C114D10441F4B8
:100EA000EC85E4FF05C0D194C194D1088DE201C066
:100EB0008BE2B70190E00E94BD0B80E32AE0C216EE
:100EC000D1042CF08F5FFAE0CF1AD108F7CFB70129
:100ED00090E00E94BD0BB701C601C0960E94BD0BF9
:100EE00054C1833631F0833779F0833509F056C029
:100EF00020C0560132E0A30EB11CF6018081898327
:100F000001E010E0630112C05601F2E0AF0EB11C27
:100F1000F601C080D18096FE03C0612F70E002C050
:100F20006FEF7FEFC6010E94B20B8C01F92DFF77A6
:100F300014C0560122E0A20EB11CF601C080D1807F
:100F400096FE03C0612F70E002C06FEF7FEFC60115
:100F50000E94A70B8C01F92DF0689F2EF3FD1AC09B
:100F6000852D90E008171907A8F4B70180E290E0FA
:100F70000E94BD0B5A94F4CFF60197FC859197FE21
:100F800081916F01B70190E00E94BD0B51105A94FE
:100F9000015011090115110579F7F7C0843611F0D8
:100FA000893661F5560197FE09C024E0A20EB11CF6
:100FB000F60160817181828193810AC0F2E0AF0EF7
:100FC000B11CF60160817181072E000C880B990B12
:100FD000F92DFF769F2E97FF09C09095809570950B
:100FE00061957F4F8F4F9F4FF0689F2E2AE030E032
:100FF000A3010E94F90BC82EC6183FC0092D8537E2
:1010000021F40F7E2AE030E01DC0097F8F3691F079
:1010100018F4883559F0C3C0803719F0883711F0BB
:10102000BEC0006104FF09C0046007C094FE08C090
:10103000066006C028E030E005C020E130E002C0D4
:1010400020E132E0560107FF09C084E0A80EB11C80
:10105000F601608171818281938108C0F2E0AF0E58
:10106000B11CF6016081718180E090E0A3010E94D3
:10107000F90BC82EC6180F77902E96FE0BC0092DBF
:101080000E7FC11650F494FE0AC092FC08C0092DD0
:101090000E7E05C0DC2C092D03C0DC2C01C0D12E36
:1010A00004FF0DC0FE01EC0DF11D8081803311F4B1
:1010B000097E09C002FF06C0D394D39404C0802FD8
:1010C000867809F0D39403FD11C000FF06C01C2DE3
:1010D000D51480F4150D1D190DC0D51458F4B701A1
:1010E00080E290E00E94BD0BD394F7CFD51410F4AA
:1010F0005D1801C0512C04FF10C0B70180E390E0DF
:101100000E94BD0B02FF17C001FD03C088E790E0FD
:1011100002C088E590E0B7010CC0802F867859F0B6
:1011200001FF02C08BE201C080E207FD8DE2B70142
:1011300090E00E94BD0BC11638F4B70180E390E047
:101140000E94BD0B1150F7CFCA94F301EC0DF11DB5
:101150008081B70190E00E94BD0BC110F5CF15C092
:10116000F4E0F51560F584E0581A93FE1FC00111F4
:1011700027C02C8523FF2AC00CEA10E0392D3071DE
:10118000932EF8018491811124C0552009F4E4CCF8
:10119000B70180E290E00E94BD0B5A94F6CFF701B0
:1011A0008681978126C08FEF9FEF23C0B70180E231
:1011B00090E00E94BD0B5A945110F8CFD8CF512C1B
:1011C000B701802F90E00E94BD0BD3CF00EB10E061
:1011D000D5CF91108052B70190E00E94BD0B0F5FF8
:1011E0001F4FCFCF23E0251510F483E0BDCF512C46
:1011F000C0CF6096E2E10C94B40A5058BB27AA27EE
:101200000E9415090C94590A0E944B0A38F00E945A
:10121000520A20F039F49F3F19F426F40C94480A3E
:101220000EF4E095E7FB0C94420AE92F0E946A0A4B
:1012300058F3BA17620773078407950720F079F40B
:10124000A6F50C948C0A0EF4E0950B2EBA2FA02D67
:101250000B01B90190010C01CA01A0011124FF2763
:10126000591B99F0593F50F4503E68F11A16F0405E
:10127000A22F232F342F4427585FF3CF469537955D
:101280002795A795F0405395C9F77EF41F16BA0B22
:10129000620B730B840BBAF09150A1F0FF0FBB1FD0
:1012A000661F771F881FC2F70EC0BA0F621F731F19
:1012B000841F48F4879577956795B795F7959E3F76
:1012C00008F0B0CF9395880F08F09927EE0F979507
:1012D000879508950E941E0A08F481E008950E94EF
:1012E00083090C94590A0E94520A58F00E944B0A32
:1012F00040F029F45F3F29F00C94420A51110C94FC
:101300008D0A0C94480A0E946A0A68F39923B1F383
:10131000552391F3951B550BBB27AA27621773071B
:10132000840738F09F5F5F4F220F331F441FAA1FAF
:10133000A9F335D00E2E3AF0E0E832D0915050406B
:10134000E695001CCAF72BD0FE2F29D0660F771F19
:10135000881FBB1F261737074807AB07B0E809F0FF
:10136000BB0B802DBF01FF2793585F4F3AF09E3F84
:10137000510578F00C94420A0C948D0A5F3FE4F317
:10138000983ED4F3869577956795B795F7959F5FC7
:10139000C9F7880F911D9695879597F90895E1E013
:1013A000660F771F881FBB1F621773078407BA0772
:1013B00020F0621B730B840BBA0BEE1F88F7E095CD
:1013C0000895E89409C097FB3EF490958095709538
:1013D00061957F4F8F4F9F4F9923A9F0F92F96E981
:1013E000BB279395F695879577956795B795F111F6
:1013F000F8CFFAF4BB0F11F460FF1BC06F5F7F4F93
:101400008F4F9F4F16C0882311F096E911C07723A4
:1014100021F09EE8872F762F05C0662371F096E8AD
:10142000862F70E060E02AF09A95660F771F881F7C
:10143000DAF7880F9695879597F90895990F000820
:10144000550FAA0BE0E8FEEF16161706E807F90796
:10145000C0F012161306E407F50798F0621B730B31
:10146000840B950B39F40A2661F0232B242B252BB2
:1014700021F408950A2609F4A140A6958FEF811D55
:10148000811D089597F99F6780E870E060E00895F6
:101490009FEF80EC089500240A941616170618068C
:1014A0000906089500240A94121613061406050668
:1014B0000895092E0394000C11F4882352F0BB0FF9
:1014C00040F4BF2B11F460FF04C06F5F7F4F8F4F5C
:1014D0009F4F089557FD9058440F551F59F05F3F97
:1014E00071F04795880F97FB991F61F09F3F79F046
:1014F00087950895121613061406551FF2CF4695C8
:10150000F1DF08C0161617061806991FF1CF869549
:101510007105610508940895E894BB27662777272D
:10152000CB0197F908950E941E0A08F48FEF0895E1
:101530002F923F924F925F926F927F928F929F92E3
:10154000AF92BF92CF92DF92EF92FF920F931F93D1
:10155000CF93DF93CDB7DEB7CA1BDB0B0FB6F89482
:10156000DEBF0FBECDBF09942A88398848885F84C2
:101570006E847D848C849B84AA84B984C884DF8033
:10158000EE80FD800C811B81AA81B981CE0FD11D17
:101590000FB6F894DEBF0FBECDBFED010895283021
:1015A00008F027E03327DA01990F311D87FD91609C
:1015B00000966105710539F432602E5F3D9330E38A
:1015C0002A95E1F708959F3F30F080387105610555
:1015D00009F03C5F3C5F3D93913008F08068911DBD
:1015E000DF93CF931F930F93FF92EF92192F987F62
:1015F0009695E92F96959695E90FFF27E25FFE4FA6
:1016000099273327EE24FF24A701E70105900894CA
:10161000079428F4360FE71EF81E491F511D660F68
:10162000771F881F991F0694A1F70590079428F447
:10163000E70EF81E491F561FC11D770F881F991FFF
:10164000661F0694A1F70590079428F4F80E491F29
:10165000561FC71FD11D880F991F661F771F06943D
:10166000A1F70590079420F4490F561FC71FD81FF4
:10167000990F661F771F881F0694A9F7849110950C
:10168000177041F0D695C79557954795F794E7940D
:101690001A95C1F7E4EBF0E0689415901591359137
:1016A0006591959105907FE27395E118F10A430BDE
:1016B000560BC90BD009C0F7E10CF11E431F561F92
:1016C000C91FD01D7EF4703311F48A95E6CFE894DB
:1016D000015030F0080F0AF40027021708F4202FF9
:1016E0002395022F7A3328F079E37D932A95E9F741
:1016F00010C07D932A9589F606949795679537953E
:1017000017951794E118F10A430B560BC90BD00932
:1017100098F023957E9173957A3308F070E37C936B
:101720002013B8F77E9170617D9330F0839571E35B
:101730007D9370E32A95E1F71124EF90FF900F91CC
:101740001F91CF91DF91992787FD90950895FC0116
:101750000590615070400110D8F7809590958E0FDC
:101760009F1F0895FC016150704001900110D8F74F
:10177000809590958E0F9F1F08950F931F93CF9381
:10178000DF93FB01238121FD03C08FEF9FEF2CC06E
:1017900022FF16C0468157812481358142175307A5
:1017A00044F4A081B1819D012F5F3F4F318320839D
:1017B0008C93268137812F5F3F4F3783268314C058
:1017C0008B01EC01FB010084F185E02D0995892B4B
:1017D000E1F6D80116968D919C9117970196179670
:1017E0009C938E931697CE01DF91CF911F910F910D
:1017F0000895FA01AA27283051F1203181F1E894A7
:101800006F936E7F6E5F7F4F8F4F9F4FAF4FB1E0F3
:101810003ED0B4E03CD0670F781F891F9A1FA11DEE
:10182000680F791F8A1F911DA11D6A0F711D811DEF
:10183000911DA11D20D009F468943F912AE0269FB4
:1018400011243019305D3193DEF6CF010895462F13
:101850004770405D4193B3E00FD0C9F7F6CF462FF4
:101860004F70405D4A3318F0495D31FD405241935D
:1018700002D0A9F7EACFB4E0A6959795879577951A
:101880006795BA95C9F700976105710508959B01A1
:10189000AC010A2E06945795479537952795BA952A
:1018A000C9F7620F731F841F951FA01D0895F89438
:0218B000FFCF68
:1018B2004A616D6965204D617274696E006E3130E6
:1018C2003231323336310054686F6D6173202B2010
:0A18D2004A657272656E63650000DE
:00000001FF
