:100000000C947D010C949A010C949A010C949A0121
:100010000C949A010C949A010C949A010C949A01F4
:100020000C949A010C949A010C940B050C944505C0
:100030000C949A010C949A010C949A010C949A01D4
:100040000C949A010C949A010C949A010C949A01C4
:100050000C949A010C949A010C949A010C949A01B4
:100060000C949A010C949A010C949A010C949A01A4
:100070000C949A010C949A010C949A010C949A0194
:100080000C949A010C949A010C949A010C949A0184
:100090000C949A010C949A010C949A010C949A0174
:1000A0000C949A010C949A010C949A01AC04A80443
:1000B000A404A0049C049804940490048C04880470
:1000C000840480047C047804740470046C04680460
:1000D000640460045C045804540450044C04480450
:1000E000440440043C043804340430042C04280440
:1000F000240420041C041804140410040C04080430
:1001000004040004FC03F803F403F003EC03E80325
:10011000E403E003DC03D803D403D003CC03C80317
:10012000C403C003BC03B803B403B003AC036E61E3
:100130006E00696E660000407A10F35A00A0724E9D
:1001400018090010A5D4E80000E87648170000E47C
:100150000B54020000CA9A3B000000E1F5050000C4
:1001600080969800000040420F000000A086010029
:100170000000102700000000E803000000006400F9
:10018000000000000A000000000001000000000064
:100190002C76D888DC674F0823DFC1DFAE59E1B188
:1001A000B796E5E3E453C63AE651997696E8E6C297
:1001B0008426EB898C9B62ED407C6FFCEFBC9C9F9E
:1001C00040F2BAA56FA5F490055A2AF75C936B6CC0
:1001D000F9676DC11BFCE0E40D47FEF520E6B500B4
:1001E000D0ED902E0300943577050080841E080022
:1001F00000204E0A000000C80C333333330F986ED2
:1002000012831141EF8D2114893BE65516CFFEE68E
:10021000DB18D1844B381BF77C1D901DA4BBE42454
:10022000203284725E228100C9F124ECA1E53D27D1
:1002300000010000DD0212000200009A02430003E8
:100240000000960204010309048002140203090459
:10025000680216030309045A020C0C033100320031
:1002600033003400350000001603550053004200EF
:100270002000530065007200690061006C000000FE
:10028000140359006F007500720020004E006100D9
:100290006D00650000000403090409024300020127
:1002A00000C0320904000001020201000524001010
:1002B00001052401010104240206052406000107AA
:1002C00005820310004009040100020A0000000733
:1002D00005030240000007058402400000120100EF
:1002E0000202000010C0167A04000101020301009E
:1002F00001C1120180360181360011241FBECFEFEB
:10030000DAE0DEBFCDBF11E0A0E0B1E0ECEDFCE152
:1003100002C005900D92A431B107D9F721E0A4E104
:10032000B1E001C01D92A633B207E1F70E947B0243
:100330000C946C0E0C940000EF92FF920F931F939D
:10034000CF93DF93E9E1F1E067E070E001E010E0D6
:100350002081A0E0B1E080E090E04D917801082E8E
:1003600001C0EE0C0A94EAF7E0942E2150E0062E2C
:1003700002C0559547950A94E2F7342F3170C32F88
:1003800030E0D32FAE01082E01C0440F0A94EAF7E3
:10039000242B01968830910501F721936150710952
:1003A000B8F60E94710C6CE470E00E94C00B809360
:1003B00018010E94710C68E270E00E94C00B8093EB
:1003C0003501DF91CF911F910F91FF90EF9008952C
:1003D000CF93DF9360E280E00E94AB06609118014A
:1003E000606880E00E94AB06609135016695669575
:1003F0006695606480E00E94AB06C9E1D1E0699136
:1004000081E00E94AB0681E0C132D807C1F7DF91DD
:10041000CF910895CF93DF9360E280E00E94AB0616
:1004200060911801606880E00E94AB066091350120
:10043000669566956695606480E00E94AB06C8E0AC
:10044000D0E060E081E00E94AB062197D1F7DF9118
:10045000CF910895E1E6F0E080E8808381E0808339
:100460000E9491068FE30E94C9060E94F9060E942D
:100470009C010C94E8010F931F93CF93DF9381E0CD
:100480000E9495068C0180E00E949506EC010E9476
:100490000A02B801110F880B990B0E94C70A20E0CD
:1004A00030E048E952E40E942B0B20E030E040E8C5
:1004B0005AE30E942B0B0E948F0A60931801BE0121
:1004C000DD0F880B990B0E94C70A20E030E040E264
:1004D00052E40E942B0B20E030E040E85AE30E94F7
:1004E0002B0B0E948F0A60933501DF91CF911F91F2
:1004F0000F910C94E8010E942A020E943B022FEF08
:1005000080E792E0215080409040E1F700C0000079
:10051000F4CF8091E80080FFFCCF089581E08093C4
:10052000D70080EA8093D80082E189BD09B400FE3B
:10053000FDCF80E98093D8001092E000109217015F
:10054000109214018CE08093E200789408958091D9
:10055000170108959FB7F89480911701882369F0D7
:1005600083E08093E9002BE68091E80085FD09C0D7
:1005700082FF03C02093E800F7CF9FBF8FEF9FEF6C
:1005800008958091F1002091E80025FD03C02BE63D
:100590002093E8009FBF90E008952FB7F8948091D2
:1005A0001701811102C080E010C083E08093E90050
:1005B0008091F200811109C09091E80092FFF3CF81
:1005C00095FDF1CF9BE69093E8002FBF08958091B1
:1005D0001701882371F08FB7F89493E09093E900A6
:1005E0002BE69091E80095FF03C02093E800F9CF37
:1005F0008FBF089590911701992371F09FB7F894D8
:1006000024E02093E90020911501222349F0209154
:10061000E80025FD03C09FBF8FEF089510921501DC
:100620002091E400275E34E04091E80045FD12C0CF
:100630009FBF9091E400291304C081E080931501CD
:10064000EBCF90911701992339F39FB7F89430932A
:10065000E900EACF8093F1008091E80085FD03C0B6
:100660008AE38093E80085E0809316019FBF80E0D5
:100670000895909117019923D1F09FB7F89424E041
:100680002093E9002091E80025FD02C09FBF0FC024
:100690008093F1008091E80085FD03C08AE3809398
:1006A000E80085E0809316019FBF80E008958FEFFA
:1006B00008950F931F93CF93DF93DC01CB0120911B
:1006C0001701222371F02FB7F89434E03093E9003A
:1006D00030911501332349F03091E80035FD03C016
:1006E0002FBF8FEF43C110921501C4E0D0E41AE38D
:1006F00005E0009709F439C13091E400375E40917C
:10070000E80045FD12C02FBF2091E400321304C061
:1007100081E080931501E5CF20911701222309F391
:100720002FB7F894C093E900EACF3091F200ED2F93
:10073000E31B4E2F50E08417950708F4E82F8E1B1B
:1007400091094E2F50E04134510508F001C1FA01E2
:10075000EA5AFF4F0C94D40B3C913093F100119660
:100760003C913093F10011963C913093F100119639
:100770003C913093F10011963C913093F100119629
:100780003C913093F10011963C913093F100119619
:100790003C913093F10011963C913093F100119609
:1007A0003C913093F10011963C913093F1001196F9
:1007B0003C913093F10011963C913093F1001196E9
:1007C0003C913093F10011963C913093F1001196D9
:1007D0003C913093F10011963C913093F1001196C9
:1007E0003C913093F10011963C913093F1001196B9
:1007F0003C913093F10011963C913093F1001196A9
:100800003C913093F10011963C913093F100119698
:100810003C913093F10011963C913093F100119688
:100820003C913093F10011963C913093F100119678
:100830003C913093F10011963C913093F100119668
:100840003C913093F10011963C913093F100119658
:100850003C913093F10011963C913093F100119648
:100860003C913093F10011963C913093F100119638
:100870003C913093F10011963C913093F100119628
:100880003C913093F10011963C913093F100119618
:100890003C913093F10011963C913093F100119608
:1008A0003C913093F10011963C913093F1001196F8
:1008B0003C913093F10011963C913093F1001196E8
:1008C0003C913093F10011963C913093F1001196D8
:1008D0003C913093F10011963C913093F1001196C8
:1008E0003C913093F10011963C913093F1001196B8
:1008F0003C913093F10011963C913093F1001196A8
:100900003C913093F10011963C913093F100119697
:100910003C913093F10011963C913093F100119687
:100920003C913093F10011963C913093F100119677
:100930003C913093F10011963C913093F100119667
:100940003C913093F10011963C913093F100119657
:100950003C913093F10011963091E80035FF1093EF
:10096000E800009316012FBFC4CE80E0DF91CF9145
:100970001F910F9108958FB7F894909116019923C4
:1009800041F094E09093E9009AE39093E80010928C
:1009900016018FBF0895609108017091090180913F
:1009A0000A0190910B01089580910C0108958091A6
:1009B0000D01089580910E0108958091140108950C
:1009C0009FB7F89420911701222339F022E0209359
:1009D000E9002091E80025FD03C09FBF8FEF089537
:1009E00021EA2093F10020E22093F1001092F1001F
:1009F0001092F1001092F1001092F10021E020938A
:100A0000F1001092F1008093F1008AE38093E800F6
:100A10009FBF80E008951F920F920FB60F9211248E
:100A20008F939F938091E1001092E10083FF11C0AA
:100A30001092E90091E09093EB001092EC0092E1AB
:100A40009093ED0098E09093F000109217011092AF
:100A5000140182FF13C080911701882379F08091DF
:100A60001601882359F0815080931601811106C028
:100A700084E08093E9008AE38093E8009F918F915E
:100A80000F900FBE0F901F9018951F920F920FB6E8
:100A90000F921124FF920F931F932F933F934F9325
:100AA0005F936F937F938F939F93AF93BF93CF93F6
:100AB000DF93EF93FF931092E9008091E80083FFAA
:100AC00017C1F090F1008091F1000091F100909138
:100AD000F10010E0192BC091F1009091F100D0E0ED
:100AE000D92B2091F1006091F10092EF9093E800F2
:100AF000863009F049C080E392E04AE552E0FC010B
:100B0000A591B4910A171B07D9F4FC013296A5915F
:100B1000B491CA17DB07A1F4FC01349645915491B6
:100B2000FC013696849130E0362B2F3F310519F0C9
:100B300010F02FEF30E0281708F4822F3EEF0CC0A2
:100B4000079648175907D9F6D3C0490F511D891B7D
:100B50003093E8008823A9F09091E800292F2570B0
:100B6000D9F392FDC8C0982F813108F090E1FA01C5
:100B7000292F222351F364916093F1002150319683
:100B8000F8CF903149F3B7C0853049F48EEF8093A8
:100B9000E8000E94890200680093E300ACC089303D
:100BA00059F5F110A5C0009317011092140110928D
:100BB00016018EEF8093E80041E08FEE92E04093C3
:100BC000E9009C012F5F3F4FFC0154915093EB00D3
:100BD000552359F0F90124912093EC009C012D5FDD
:100BE0003F4F3196E491E093ED004F5F453011F0B7
:100BF000C901E5CF8EE177C0883051F4F0E8FF12EB
:100C000077C00E948902809117018093F10049C04A
:100C1000813281F481EAF8126BC00E948902E8E017
:100C2000F1E08FE091E021912093F1008E179F0772
:100C3000D1F737C08032A9F491E2F91259C08091FE
:100C4000E80082FFFCCFE8E0F1E08FE091E0209146
:100C5000F10021938E179F07D1F78BEF8093E80067
:100C600020C0823241F4E1E2FE1242C0009314013E
:100C70000E94890216C0811118C00E948902F2E800
:100C8000FF120AC0C093E9008091EB0085FB882722
:100C900080F91092E90001C080E08093F100109289
:100CA000F1008EEF8093E80026C0982F9D7F913051
:100CB000F9F492E0F9121CC0012BD1F4CF779FEF29
:100CC0009C0F9430A8F49EEF9093E800C093E90045
:100CD000833071F089E18093EB0081E090E001C006
:100CE000880FCA95EAF78093EA001092EA0003C0E1
:100CF00081E28093EB00FF91EF91DF91CF91BF9163
:100D0000AF919F918F917F916F915F914F913F91A3
:100D10002F911F910F91FF900F900FBE0F901F907A
:100D2000189587E880937A000895982F9F719064B2
:100D300090937C00807280937B0080917A00806425
:100D400080937A0080917A0086FDFCCF80917800B4
:100D500090917900089525B12F7D30E2839FC001E5
:100D60001124822B85B95F9887E090E070E08F981E
:100D70009B01082E02C0359527950A94E2F720FFC3
:100D800002C02E9A01C02E988F9A019780F75F9A21
:100D90000895CF93C82F579A249A259A269A879A0E
:100DA0002C985F9A2C9A61E280E00E94AB066C2F2F
:100DB000606880E00E94AB0664E080E00E94AB06C1
:100DC00063E180E00E94AB066CE080E00E94AB062D
:100DD00060E280E00E94AB066CE080E00E94AB061F
:100DE00060E480E00E94AB0660E880E0CF910C9464
:100DF000AB06CF93DF93C8EFD1E060E081E00E94C3
:100E0000AB062197D1F7DF91CF910895CF93C82FEB
:100E1000606480E00E94AB066C2F606880E0CF9138
:100E20000C94AB06A0E1B0E0E8E1F7E00C94DA0B3B
:100E30007C011B016A01FC0117821682838181FFFC
:100E400044C39E012F5F3F4F3901F7019381F101A8
:100E500093FD859193FF81911F01882309F431C38C
:100E6000853239F493FD859193FF81911F0185327D
:100E700039F4B70190E00E946F0D56016501E5CF8E
:100E800010E0512C912CFFE1F915D8F08B3279F05C
:100E900038F4803279F08332A1F4F92DF0612EC05C
:100EA0008D3261F0803369F4292D21602DC0392DF8
:100EB0003260932E892D8460982E2AC0E92DE86037
:100EC00015C097FC2DC020ED280F2A3088F496FE1F
:100ED00006C03AE0139F200D1124122F19C08AE09A
:100EE000589E200D1124522EE92DE0629E2E10C036
:100EF0008E3231F496FCE5C2F92DF0649F2E08C0C5
:100F00008C3621F4292D2068922E02C0883641F4B7
:100F1000F10193FD859193FF81911F018111B3CF61
:100F20009BEB980F933020F4992D9061805E07C061
:100F30009BE9980F933008F066C1992D9F7E96FF2C
:100F400016E09F73992E853619F49064992E08C087
:100F5000863621F4392F3068932E02C011111150BA
:100F600097FE07C01C3350F444244394410E27E0FD
:100F70000BC0183038F027E017E005C027E09CE3ED
:100F8000492E02C0212F412C560184E0A80EB11C2D
:100F9000F6016081718182819381042DA3010E94F9
:100FA000810C6C01F981FC87F0FF02C0F3FF06C0E1
:100FB00091FC06C092FE06C000E205C00DE203C02F
:100FC0000BE201C000E08C858C7019F001115AC24F
:100FD0009BC297FE10C04C0CFC85F4FF04C08A81B4
:100FE000813309F44A94141474F528E0241578F533
:100FF00088E0482E2CC096FC2AC0812F90E08C15EA
:101000009D059CF03CEFC3163FEFD30674F0892D8D
:101010008068982E0AC0E2E0F0E0EC0FFD1FE10FBF
:10102000F11D8081803319F411501111F4CF97FE16
:101030000EC044244394410E812F90E0C816D90677
:101040002CF41C1904C04424439401C010E097FE02
:1010500006C01C141D0434F4C601019605C085E0C9
:1010600090E002C081E090E001110196112331F07F
:10107000212F30E02F5F3F4F820F931F252D30E04F
:101080008217930714F4581A01C0512C892D8970C6
:1010900049F4552039F0B70180E290E00E946F0DCD
:1010A0005A94F7CF002329F0B701802F90E00E94D7
:1010B0006F0D93FC09C0552039F0B70180E390E033
:1010C0000E946F0D5A94F7CF97FE4CC04601D7FE91
:1010D00002C0812C912CC60188199909F301E80FEF
:1010E000F91FFE87ED87960124193109388B2F8768
:1010F000012F10E01195019511093FEF831693061A
:1011000029F4B7018EE290E00E946F0DC814D90453
:101110004CF08F8598898815990524F4ED85FE8516
:10112000818101C080E3F1E08F1A91082D853E8511
:101130002F5F3F4F3E872D87801691062CF0B70119
:1011400090E00E946F0DD9CFC814D90441F49A8160
:10115000963320F4953319F43C8534FF81E3B701CD
:1011600090E04EC08A81813319F09C859F7E9C87D8
:10117000B70190E00E946F0D111105C094FC18C0DA
:1011800085E690E017C0B7018EE290E00E946F0DF7
:101190001E5F82E001E0080FF301E80FF11D80817E
:1011A000B70190E00E946F0D802F0113F3CFE6CFBF
:1011B00085E490E0B7010E946F0DD7FC06C0C11412
:1011C000D10441F4EC85E4FF05C0D194C194D10869
:1011D0008DE201C08BE2B70190E00E946F0D80E3C9
:1011E0002AE0C216D1042CF08F5FFAE0CF1AD108A2
:1011F000F7CFB70190E00E946F0DB701C601C0960E
:101200000E946F0D54C1833631F0833779F08335F6
:1012100009F056C020C0560132E0A30EB11CF60101
:101220008081898301E010E0630112C05601F2E081
:10123000AF0EB11CF601C080D18096FE03C0612FB5
:1012400070E002C06FEF7FEFC6010E94640D8C0159
:10125000F92DFF7714C0560122E0A20EB11CF60151
:10126000C080D18096FE03C0612F70E002C06FEF96
:101270007FEFC6010E94590D8C01F92DF0689F2E59
:10128000F3FD1AC0852D90E008171907A8F4B701DF
:1012900080E290E00E946F0D5A94F4CFF60197FC23
:1012A000859197FE81916F01B70190E00E946F0DCB
:1012B00051105A94015011090115110579F7F7C021
:1012C000843611F0893661F5560197FE09C024E095
:1012D000A20EB11CF60160817181828193810AC0E6
:1012E000F2E0AF0EB11CF60160817181072E000C97
:1012F000880B990BF92DFF769F2E97FF09C09095CB
:101300008095709561957F4F8F4F9F4FF0689F2E0E
:101310002AE030E0A3010E94AB0DC82EC6183FC0E2
:10132000092D853721F40F7E2AE030E01DC0097FAA
:101330008F3691F018F4883559F0C3C0803719F012
:10134000883711F0BEC0006104FF09C0046007C007
:1013500094FE08C0066006C028E030E005C020E129
:1013600030E002C020E132E0560107FF09C084E00E
:10137000A80EB11CF601608171818281938108C041
:10138000F2E0AF0EB11CF6016081718180E090E067
:10139000A3010E94AB0DC82EC6180F77902E96FEA3
:1013A0000BC0092D0E7FC11650F494FE0AC092FCAA
:1013B00008C0092D0E7E05C0DC2C092D03C0DC2CD5
:1013C00001C0D12E04FF0DC0FE01EC0DF11D808186
:1013D000803311F4097E09C002FF06C0D394D39470
:1013E00004C0802F867809F0D39403FD11C000FF5C
:1013F00006C01C2DD51480F4150D1D190DC0D51473
:1014000058F4B70180E290E00E946F0DD394F7CFBB
:10141000D51410F45D1801C0512C04FF10C0B701A1
:1014200080E390E00E946F0D02FF17C001FD03C032
:1014300088E790E002C088E590E0B7010CC0802FFB
:10144000867859F001FF02C08BE201C080E207FDFF
:101450008DE2B70190E00E946F0DC11638F4B7011C
:1014600080E390E00E946F0D1150F7CFCA94F30112
:10147000EC0DF11D8081B70190E00E946F0DC1104D
:10148000F5CF15C0F4E0F51560F584E0581A93FE29
:101490001FC0011127C02C8523FF2AC00EE211E0D6
:1014A000392D3071932EF8018491811124C055207B
:1014B00009F4E4CCB70180E290E00E946F0D5A94E9
:1014C000F6CFF7018681978126C08FEF9FEF23C06B
:1014D000B70180E290E00E946F0D5A945110F8CF4E
:1014E000D8CF512CB701802F90E00E946F0DD3CF41
:1014F00002E311E0D5CF91108052B70190E00E9435
:101500006F0D0F5F1F4FCFCF23E0251510F483E041
:10151000BDCF512CC0CF6096E2E10C94F60B0E9437
:10152000960A6894B1110C94250B08950E940A0B39
:1015300088F09F5798F0B92F9927B751B0F0E1F094
:10154000660F771F881F991F1AF0BA95C9F714C044
:10155000B13091F00E94240BB1E008950C94240B5B
:10156000672F782F8827B85F39F0B93FCCF386957D
:1015700077956795B395D9F73EF4909580957095DA
:1015800061957F4F8F4F9F4F0895E89409C097FB57
:101590003EF490958095709561957F4F8F4F9F4F4A
:1015A0009923A9F0F92F96E9BB279395F69587958E
:1015B00077956795B795F111F8CFFAF4BB0F11F451
:1015C00060FF1BC06F5F7F4F8F4F9F4F16C08823F8
:1015D00011F096E911C0772321F09EE8872F762F2E
:1015E00005C0662371F096E8862F70E060E02AF06F
:1015F0009A95660F771F881FDAF7880F969587955B
:1016000097F9089557FD9058440F551F59F05F3FC3
:1016100071F04795880F97FB991F61F09F3F79F014
:1016200087950895121613061406551FF2CF469596
:10163000F1DF08C0161617061806991FF1CF869518
:101640007105610508940895E894BB2766277727FC
:10165000CB0197F908950E943E0B0C94AF0B0E94AA
:10166000A10B38F00E94A80B20F0952311F00C94E8
:10167000980B0C949E0B11240C94250B0E94020BCA
:1016800070F3959FC1F3950F50E0551F629FF001D5
:10169000729FBB27F00DB11D639FAA27F00DB11DEE
:1016A000AA1F649F6627B00DA11D661F829F222777
:1016B000B00DA11D621F739FB00DA11D621F839FFE
:1016C000A00D611D221F749F3327A00D611D231FD4
:1016D000849F600D211D822F762F6A2F11249F5722
:1016E00050409AF0F1F088234AF0EE0FFF1FBB1F25
:1016F000661F771F881F91505040A9F79E3F5105E4
:1017000080F00C94980B0C94250B5F3FE4F3983E0B
:10171000D4F3869577956795B795F795E7959F5F8D
:10172000C1F7FE2B880F911D9695879597F908951F
:1017300097F99F6780E870E060E008959FEF80EC84
:10174000089500240A941616170618060906089527
:1017500000240A9412161306140605060895092E8D
:101760000394000C11F4882352F0BB0F40F4BF2BFC
:1017700011F460FF04C06F5F7F4F8F4F9F4F08953C
:1017800097FB072E16F4009407D077FD09D00E942E
:10179000110C07FC05D03EF4909581959F4F08955C
:1017A000709561957F4F0895EE0FFF1F0590F4919E
:1017B000E02D09942F923F924F925F926F927F9209
:1017C0008F929F92AF92BF92CF92DF92EF92FF9251
:1017D0000F931F93CF93DF93CDB7DEB7CA1BDB0BFD
:1017E0000FB6F894DEBF0FBECDBF09942A883988A2
:1017F00048885F846E847D848C849B84AA84B984A9
:10180000C884DF80EE80FD800C811B81AA81B981B4
:10181000CE0FD11D0FB6F894DEBF0FBECDBFED01C8
:101820000895AA1BBB1B51E107C0AA1FBB1FA61727
:10183000B70710F0A61BB70B881F991F5A95A9F779
:1018400080959095BC01CD0108958F929F92AF92A3
:10185000BF92CF92DF92EF92FF92CF93DF93EC0192
:10186000688179818A819B81611571058105910566
:1018700021F464E279ED8BE597E02DE133EF41E06F
:1018800050E00E94090E49015A019B01AC01A7EAF0
:10189000B1E40E94280E6B017C01ACEEB4EFA5010F
:1018A00094010E94360EDC01CB018C0D9D1DAE1DF6
:1018B000BF1DB7FF03C00197A109B0488883998372
:1018C000AA83BB839F77DF91CF91FF90EF90DF904A
:1018D000CF90BF90AF909F908F9008950E94250C5D
:1018E00008958FE091E00E94250C0895A0E0B0E0FB
:1018F00080930F0190931001A0931101B0931201F6
:101900000895283008F027E03327DA01990F311DB8
:1019100087FD916000966105710539F432602E5F94
:101920003D9330E32A95E1F708959F3F30F08038EA
:101930007105610509F03C5F3C5F3D93913008F013
:101940008068911DDF93CF931F930F93FF92EF92C7
:10195000192F987F9695E92F96959695E90FFF2771
:10196000E057FE4F99273327EE24FF24A701E70114
:1019700005900894079428F4360FE71EF81E491FB7
:10198000511D660F771F881F991F0694A1F70590B8
:10199000079428F4E70EF81E491F561FC11D770F44
:1019A000881F991F661F0694A1F70590079428F4D5
:1019B000F80E491F561FC71FD11D880F991F661F9C
:1019C000771F0694A1F70590079420F4490F561F3E
:1019D000C71FD81F990F661F771F881F0694A9F786
:1019E00084911095177041F0D695C79557954795F6
:1019F000F794E7941A95C1F7E6E3F1E0689415903F
:101A0000159135916591959105907FE27395E11857
:101A1000F10A430B560BC90BD009C0F7E10CF11EBC
:101A2000431F561FC91FD01D7EF4703311F48A95D1
:101A3000E6CFE894015030F0080F0AF400270217AF
:101A400008F4202F2395022F7A3328F079E37D9331
:101A50002A95E9F710C07D932A9589F60694979503
:101A60006795379517951794E118F10A430B560BB4
:101A7000C90BD00998F023957E9173957A3308F0BD
:101A800070E37C932013B8F77E9170617D9330F002
:101A9000839571E37D9370E32A95E1F71124EF902C
:101AA000FF900F911F91CF91DF91992787FD90951E
:101AB0000895FC010590615070400110D8F78095A1
:101AC00090958E0F9F1F0895FC016150704001900A
:101AD0000110D8F7809590958E0F9F1F08950F9352
:101AE0001F93CF93DF93FB01238121FD03C08FEF71
:101AF0009FEF2CC022FF16C046815781248135817B
:101B00004217530744F4A081B1819D012F5F3F4FDD
:101B1000318320838C93268137812F5F3F4F37831A
:101B2000268314C08B01EC01FB010084F185E02DBC
:101B30000995892BE1F6D80116968D919C911797FE
:101B4000019617969C938E931697CE01DF91CF91B5
:101B50001F910F910895FA01AA27283051F12031E1
:101B600081F1E8946F936E7F6E5F7F4F8F4F9F4F31
:101B7000AF4FB1E03ED0B4E03CD0670F781F891F73
:101B80009A1FA11D680F791F8A1F911DA11D6A0F41
:101B9000711D811D911DA11D20D009F468943F91F4
:101BA0002AE0269F11243019305D3193DEF6CF01F3
:101BB0000895462F4770405D4193B3E00FD0C9F7B9
:101BC000F6CF462F4F70405D4A3318F0495D31FD26
:101BD0004052419302D0A9F7EACFB4E0A695979579
:101BE000879577956795BA95C9F70097610571054F
:101BF00008959B01AC010A2E069457954795379599
:101C00002795BA95C9F7620F731F841F951FA01DF2
:101C10000895052E97FB1EF400940E94200E57FD98
:101C200007D00E943B0E07FC03D04EF40C94200E0C
:101C300050954095309521953F4F4F4F5F4F0895F8
:101C400090958095709561957F4F8F4F9F4F089528
:101C50000E945D0EA59F900DB49F900DA49F800DD6
:101C6000911D11240895B7FF0C94280E0E94280E90
:101C7000821B930B0895A1E21A2EAA1BBB1BFD0128
:101C80000DC0AA1FBB1FEE1FFF1FA217B307E4075B
:101C9000F50720F0A21BB30BE40BF50B661F771FB3
:101CA000881F991F1A9469F7609570958095909593
:101CB0009B01AC01BD01CF010895A29FB001B39F6C
:101CC000C001A39F700D811D1124911DB29F700D45
:0C1CD000811D1124911D0895F894FFCF90
:101CDC003C42A581A599423C00E1000000000801AE
:041CEC0000000000F4
:00000001FF
